{
  "_format": "hh-sol-artifact-1",
  "contractName": "AroundHost",
  "sourceName": "contracts/AroundHost.sol",
  "abi": [
    {
      "inputs": [],
      "name": "AlreadyMember",
      "type": "error"
    },
    {
      "inputs": [],
      "name": "BurnableSoulbound",
      "type": "error"
    },
    {
      "inputs": [],
      "name": "NotWhitelisted",
      "type": "error"
    },
    {
      "anonymous": false,
      "inputs": [
        {
          "indexed": true,
          "internalType": "address",
          "name": "owner",
          "type": "address"
        },
        {
          "indexed": true,
          "internalType": "address",
          "name": "approved",
          "type": "address"
        },
        {
          "indexed": true,
          "internalType": "uint256",
          "name": "tokenId",
          "type": "uint256"
        }
      ],
      "name": "Approval",
      "type": "event"
    },
    {
      "anonymous": false,
      "inputs": [
        {
          "indexed": true,
          "internalType": "address",
          "name": "owner",
          "type": "address"
        },
        {
          "indexed": true,
          "internalType": "address",
          "name": "operator",
          "type": "address"
        },
        {
          "indexed": false,
          "internalType": "bool",
          "name": "approved",
          "type": "bool"
        }
      ],
      "name": "ApprovalForAll",
      "type": "event"
    },
    {
      "anonymous": false,
      "inputs": [
        {
          "indexed": true,
          "internalType": "address",
          "name": "minter",
          "type": "address"
        },
        {
          "indexed": true,
          "internalType": "address",
          "name": "tokenbound",
          "type": "address"
        },
        {
          "indexed": true,
          "internalType": "uint256",
          "name": "tokenId",
          "type": "uint256"
        }
      ],
      "name": "HostMinted",
      "type": "event"
    },
    {
      "anonymous": false,
      "inputs": [
        {
          "indexed": false,
          "internalType": "uint8",
          "name": "version",
          "type": "uint8"
        }
      ],
      "name": "Initialized",
      "type": "event"
    },
    {
      "anonymous": false,
      "inputs": [
        {
          "indexed": true,
          "internalType": "address",
          "name": "previousOwner",
          "type": "address"
        },
        {
          "indexed": true,
          "internalType": "address",
          "name": "newOwner",
          "type": "address"
        }
      ],
      "name": "OwnershipTransferred",
      "type": "event"
    },
    {
      "anonymous": false,
      "inputs": [
        {
          "indexed": true,
          "internalType": "address",
          "name": "from",
          "type": "address"
        },
        {
          "indexed": true,
          "internalType": "address",
          "name": "to",
          "type": "address"
        },
        {
          "indexed": true,
          "internalType": "uint256",
          "name": "tokenId",
          "type": "uint256"
        }
      ],
      "name": "Transfer",
      "type": "event"
    },
    {
      "inputs": [
        {
          "internalType": "address",
          "name": "to",
          "type": "address"
        },
        {
          "internalType": "uint256",
          "name": "tokenId",
          "type": "uint256"
        }
      ],
      "name": "approve",
      "outputs": [],
      "stateMutability": "nonpayable",
      "type": "function"
    },
    {
      "inputs": [
        {
          "internalType": "address",
          "name": "owner",
          "type": "address"
        }
      ],
      "name": "balanceOf",
      "outputs": [
        {
          "internalType": "uint256",
          "name": "",
          "type": "uint256"
        }
      ],
      "stateMutability": "view",
      "type": "function"
    },
    {
      "inputs": [
        {
          "internalType": "uint256",
          "name": "tokenId",
          "type": "uint256"
        }
      ],
      "name": "getApproved",
      "outputs": [
        {
          "internalType": "address",
          "name": "",
          "type": "address"
        }
      ],
      "stateMutability": "view",
      "type": "function"
    },
    {
      "inputs": [
        {
          "internalType": "uint256",
          "name": "",
          "type": "uint256"
        }
      ],
      "name": "hosts",
      "outputs": [
        {
          "internalType": "address",
          "name": "tokenbound",
          "type": "address"
        }
      ],
      "stateMutability": "view",
      "type": "function"
    },
    {
      "inputs": [
        {
          "internalType": "contract IERC6551Registry",
          "name": "_tokenboundRegistry",
          "type": "address"
        },
        {
          "internalType": "address",
          "name": "_tokenboundImplementation",
          "type": "address"
        }
      ],
      "name": "initialize",
      "outputs": [],
      "stateMutability": "nonpayable",
      "type": "function"
    },
    {
      "inputs": [
        {
          "internalType": "address",
          "name": "owner",
          "type": "address"
        },
        {
          "internalType": "address",
          "name": "operator",
          "type": "address"
        }
      ],
      "name": "isApprovedForAll",
      "outputs": [
        {
          "internalType": "bool",
          "name": "",
          "type": "bool"
        }
      ],
      "stateMutability": "view",
      "type": "function"
    },
    {
      "inputs": [],
      "name": "mintHost",
      "outputs": [],
      "stateMutability": "nonpayable",
      "type": "function"
    },
    {
      "inputs": [],
      "name": "name",
      "outputs": [
        {
          "internalType": "string",
          "name": "",
          "type": "string"
        }
      ],
      "stateMutability": "view",
      "type": "function"
    },
    {
      "inputs": [],
      "name": "owner",
      "outputs": [
        {
          "internalType": "address",
          "name": "",
          "type": "address"
        }
      ],
      "stateMutability": "view",
      "type": "function"
    },
    {
      "inputs": [
        {
          "internalType": "uint256",
          "name": "tokenId",
          "type": "uint256"
        }
      ],
      "name": "ownerOf",
      "outputs": [
        {
          "internalType": "address",
          "name": "",
          "type": "address"
        }
      ],
      "stateMutability": "view",
      "type": "function"
    },
    {
      "inputs": [],
      "name": "renounceOwnership",
      "outputs": [],
      "stateMutability": "nonpayable",
      "type": "function"
    },
    {
      "inputs": [
        {
          "internalType": "address",
          "name": "from",
          "type": "address"
        },
        {
          "internalType": "address",
          "name": "to",
          "type": "address"
        },
        {
          "internalType": "uint256",
          "name": "tokenId",
          "type": "uint256"
        }
      ],
      "name": "safeTransferFrom",
      "outputs": [],
      "stateMutability": "nonpayable",
      "type": "function"
    },
    {
      "inputs": [
        {
          "internalType": "address",
          "name": "from",
          "type": "address"
        },
        {
          "internalType": "address",
          "name": "to",
          "type": "address"
        },
        {
          "internalType": "uint256",
          "name": "tokenId",
          "type": "uint256"
        },
        {
          "internalType": "bytes",
          "name": "data",
          "type": "bytes"
        }
      ],
      "name": "safeTransferFrom",
      "outputs": [],
      "stateMutability": "nonpayable",
      "type": "function"
    },
    {
      "inputs": [
        {
          "internalType": "address",
          "name": "operator",
          "type": "address"
        },
        {
          "internalType": "bool",
          "name": "approved",
          "type": "bool"
        }
      ],
      "name": "setApprovalForAll",
      "outputs": [],
      "stateMutability": "nonpayable",
      "type": "function"
    },
    {
      "inputs": [
        {
          "internalType": "string",
          "name": "_uri",
          "type": "string"
        }
      ],
      "name": "setBaseURI",
      "outputs": [],
      "stateMutability": "nonpayable",
      "type": "function"
    },
    {
      "inputs": [
        {
          "internalType": "address[]",
          "name": "_whitelist",
          "type": "address[]"
        },
        {
          "internalType": "bool[]",
          "name": "_status",
          "type": "bool[]"
        }
      ],
      "name": "setWhitelist",
      "outputs": [],
      "stateMutability": "nonpayable",
      "type": "function"
    },
    {
      "inputs": [
        {
          "internalType": "bytes4",
          "name": "interfaceId",
          "type": "bytes4"
        }
      ],
      "name": "supportsInterface",
      "outputs": [
        {
          "internalType": "bool",
          "name": "",
          "type": "bool"
        }
      ],
      "stateMutability": "view",
      "type": "function"
    },
    {
      "inputs": [],
      "name": "symbol",
      "outputs": [
        {
          "internalType": "string",
          "name": "",
          "type": "string"
        }
      ],
      "stateMutability": "view",
      "type": "function"
    },
    {
      "inputs": [
        {
          "internalType": "uint256",
          "name": "tokenId",
          "type": "uint256"
        }
      ],
      "name": "tokenURI",
      "outputs": [
        {
          "internalType": "string",
          "name": "",
          "type": "string"
        }
      ],
      "stateMutability": "view",
      "type": "function"
    },
    {
      "inputs": [],
      "name": "tokenboundImplementation",
      "outputs": [
        {
          "internalType": "address",
          "name": "",
          "type": "address"
        }
      ],
      "stateMutability": "view",
      "type": "function"
    },
    {
      "inputs": [],
      "name": "tokenboundRegistry",
      "outputs": [
        {
          "internalType": "contract IERC6551Registry",
          "name": "",
          "type": "address"
        }
      ],
      "stateMutability": "view",
      "type": "function"
    },
    {
      "inputs": [
        {
          "internalType": "address",
          "name": "from",
          "type": "address"
        },
        {
          "internalType": "address",
          "name": "to",
          "type": "address"
        },
        {
          "internalType": "uint256",
          "name": "tokenId",
          "type": "uint256"
        }
      ],
      "name": "transferFrom",
      "outputs": [],
      "stateMutability": "nonpayable",
      "type": "function"
    },
    {
      "inputs": [
        {
          "internalType": "address",
          "name": "newOwner",
          "type": "address"
        }
      ],
      "name": "transferOwnership",
      "outputs": [],
      "stateMutability": "nonpayable",
      "type": "function"
    },
    {
      "inputs": [
        {
          "internalType": "address",
          "name": "",
          "type": "address"
        }
      ],
      "name": "whitelistedAddresses",
      "outputs": [
        {
          "internalType": "bool",
          "name": "",
          "type": "bool"
        }
      ],
      "stateMutability": "view",
      "type": "function"
    }
  ],
  "bytecode": "0x608060405234801561001057600080fd5b506139f6806100206000396000f3fe608060405234801561001057600080fd5b50600436106101585760003560e01c806370a08231116100c3578063b88d4fde1161007c578063b88d4fde146103c3578063c443a5d2146103df578063c87b56dd146103fd578063e985e9c51461042d578063eddb31bb1461045d578063f2fde38b1461046757610158565b806370a0823114610313578063715018a61461034357806374854ec11461034d5780638da5cb5b1461036b57806395d89b4114610389578063a22cb465146103a757610158565b80633735b3c6116101155780633735b3c6146102435780633b99adf71461027357806342842e0e1461028f578063485cc955146102ab57806355f804b3146102c75780636352211e146102e357610158565b806301ffc9a71461015d57806306c933d81461018d57806306fdde03146101bd578063081812fc146101db578063095ea7b31461020b57806323b872dd14610227575b600080fd5b61017760048036038101906101729190612304565b610483565b604051610184919061234c565b60405180910390f35b6101a760048036038101906101a291906123c5565b610565565b6040516101b4919061234c565b60405180910390f35b6101c5610585565b6040516101d29190612482565b60405180910390f35b6101f560048036038101906101f091906124da565b610617565b6040516102029190612516565b60405180910390f35b61022560048036038101906102209190612531565b61065d565b005b610241600480360381019061023c9190612571565b610774565b005b61025d600480360381019061025891906124da565b6107d4565b60405161026a9190612516565b60405180910390f35b61028d6004803603810190610288919061267f565b610812565b005b6102a960048036038101906102a49190612571565b6108e7565b005b6102c560048036038101906102c0919061273e565b610907565b005b6102e160048036038101906102dc91906128ae565b610b3d565b005b6102fd60048036038101906102f891906124da565b610b58565b60405161030a9190612516565b60405180910390f35b61032d600480360381019061032891906123c5565b610bde565b60405161033a9190612906565b60405180910390f35b61034b610c95565b005b610355610ca9565b6040516103629190612516565b60405180910390f35b610373610ccf565b6040516103809190612516565b60405180910390f35b610391610cf9565b60405161039e9190612482565b60405180910390f35b6103c160048036038101906103bc919061294d565b610d8b565b005b6103dd60048036038101906103d89190612a2e565b610da1565b005b6103e7610e03565b6040516103f49190612b10565b60405180910390f35b610417600480360381019061041291906124da565b610e29565b6040516104249190612482565b60405180910390f35b61044760048036038101906104429190612b2b565b610e91565b604051610454919061234c565b60405180910390f35b610465610f25565b005b610481600480360381019061047c91906123c5565b6110ff565b005b60007f80ac58cd000000000000000000000000000000000000000000000000000000007bffffffffffffffffffffffffffffffffffffffffffffffffffffffff1916827bffffffffffffffffffffffffffffffffffffffffffffffffffffffff1916148061054e57507f5b5e139f000000000000000000000000000000000000000000000000000000007bffffffffffffffffffffffffffffffffffffffffffffffffffffffff1916827bffffffffffffffffffffffffffffffffffffffffffffffffffffffff1916145b8061055e575061055d82611182565b5b9050919050565b60ce6020528060005260406000206000915054906101000a900460ff1681565b60606065805461059490612b9a565b80601f01602080910402602001604051908101604052809291908181526020018280546105c090612b9a565b801561060d5780601f106105e25761010080835404028352916020019161060d565b820191906000526020600020905b8154815290600101906020018083116105f057829003601f168201915b5050505050905090565b6000610622826111ec565b6069600083815260200190815260200160002060009054906101000a900473ffffffffffffffffffffffffffffffffffffffff169050919050565b600061066882610b58565b90508073ffffffffffffffffffffffffffffffffffffffff168373ffffffffffffffffffffffffffffffffffffffff16036106d8576040517f08c379a00000000000000000000000000000000000000000000000000000000081526004016106cf90612c3d565b60405180910390fd5b8073ffffffffffffffffffffffffffffffffffffffff166106f7611237565b73ffffffffffffffffffffffffffffffffffffffff161480610726575061072581610720611237565b610e91565b5b610765576040517f08c379a000000000000000000000000000000000000000000000000000000000815260040161075c90612ccf565b60405180910390fd5b61076f838361123f565b505050565b61078561077f611237565b826112f8565b6107c4576040517f08c379a00000000000000000000000000000000000000000000000000000000081526004016107bb90612d61565b60405180910390fd5b6107cf83838361138d565b505050565b60cd6020528060005260406000206000915090508060000160009054906101000a900473ffffffffffffffffffffffffffffffffffffffff16905081565b61081a611686565b60005b848490508110156108e05782828281811061083b5761083a612d81565b5b90506020020160208101906108509190612db0565b60ce600087878581811061086757610866612d81565b5b905060200201602081019061087c91906123c5565b73ffffffffffffffffffffffffffffffffffffffff1673ffffffffffffffffffffffffffffffffffffffff16815260200190815260200160002060006101000a81548160ff02191690831515021790555080806108d890612e0c565b91505061081d565b5050505050565b61090283838360405180602001604052806000815250610da1565b505050565b60008060019054906101000a900460ff161590508080156109385750600160008054906101000a900460ff1660ff16105b80610965575061094730611704565b1580156109645750600160008054906101000a900460ff1660ff16145b5b6109a4576040517f08c379a000000000000000000000000000000000000000000000000000000000815260040161099b90612ec6565b60405180910390fd5b60016000806101000a81548160ff021916908360ff16021790555080156109e1576001600060016101000a81548160ff0219169083151502179055505b610a556040518060400160405280600b81526020017f41726f756e6420486f73740000000000000000000000000000000000000000008152506040518060400160405280600a81526020017f41524f554e44484f535400000000000000000000000000000000000000000000815250611727565b610a5d611784565b8260cb60006101000a81548173ffffffffffffffffffffffffffffffffffffffff021916908373ffffffffffffffffffffffffffffffffffffffff1602179055508160cc60006101000a81548173ffffffffffffffffffffffffffffffffffffffff021916908373ffffffffffffffffffffffffffffffffffffffff1602179055508015610b385760008060016101000a81548160ff0219169083151502179055507f7f26b83ff96e1f2b6a682f133852f6798a09c465da95921460cefb38474024986001604051610b2f9190612f2e565b60405180910390a15b505050565b610b45611686565b8060ca9081610b5491906130eb565b5050565b600080610b64836117dd565b9050600073ffffffffffffffffffffffffffffffffffffffff168173ffffffffffffffffffffffffffffffffffffffff1603610bd5576040517f08c379a0000000000000000000000000000000000000000000000000000000008152600401610bcc90613209565b60405180910390fd5b80915050919050565b60008073ffffffffffffffffffffffffffffffffffffffff168273ffffffffffffffffffffffffffffffffffffffff1603610c4e576040517f08c379a0000000000000000000000000000000000000000000000000000000008152600401610c459061329b565b60405180910390fd5b606860008373ffffffffffffffffffffffffffffffffffffffff1673ffffffffffffffffffffffffffffffffffffffff168152602001908152602001600020549050919050565b610c9d611686565b610ca7600061181a565b565b60cc60009054906101000a900473ffffffffffffffffffffffffffffffffffffffff1681565b6000609760009054906101000a900473ffffffffffffffffffffffffffffffffffffffff16905090565b606060668054610d0890612b9a565b80601f0160208091040260200160405190810160405280929190818152602001828054610d3490612b9a565b8015610d815780601f10610d5657610100808354040283529160200191610d81565b820191906000526020600020905b815481529060010190602001808311610d6457829003601f168201915b5050505050905090565b610d9d610d96611237565b83836118e0565b5050565b610db2610dac611237565b836112f8565b610df1576040517f08c379a0000000000000000000000000000000000000000000000000000000008152600401610de890612d61565b60405180910390fd5b610dfd84848484611a4c565b50505050565b60cb60009054906101000a900473ffffffffffffffffffffffffffffffffffffffff1681565b6060610e34826111ec565b6000610e3e611aa8565b90506000815111610e5e5760405180602001604052806000815250610e89565b80610e6884611b3a565b604051602001610e799291906132f7565b6040516020818303038152906040525b915050919050565b6000606a60008473ffffffffffffffffffffffffffffffffffffffff1673ffffffffffffffffffffffffffffffffffffffff16815260200190815260200160002060008373ffffffffffffffffffffffffffffffffffffffff1673ffffffffffffffffffffffffffffffffffffffff16815260200190815260200160002060009054906101000a900460ff16905092915050565b60c96000815480929190610f3890612e0c565b9190505550610f493360c954611c08565b600060cb60009054906101000a900473ffffffffffffffffffffffffffffffffffffffff1673ffffffffffffffffffffffffffffffffffffffff1663da7323b360cc60009054906101000a900473ffffffffffffffffffffffffffffffffffffffff16620138813060c95460006040518663ffffffff1660e01b8152600401610fd695949392919061338d565b6020604051808303816000875af1158015610ff5573d6000803e3d6000fd5b505050506040513d601f19601f820116820180604052508101906110199190613408565b905060405180602001604052808273ffffffffffffffffffffffffffffffffffffffff1681525060cd600060c954815260200190815260200160002060008201518160000160006101000a81548173ffffffffffffffffffffffffffffffffffffffff021916908373ffffffffffffffffffffffffffffffffffffffff16021790555090505060c9548173ffffffffffffffffffffffffffffffffffffffff163373ffffffffffffffffffffffffffffffffffffffff167f3baf66f8fbac305a27c0224a47015a92434d71e80279c759721762d551a8e50660405160405180910390a450565b611107611686565b600073ffffffffffffffffffffffffffffffffffffffff168173ffffffffffffffffffffffffffffffffffffffff1603611176576040517f08c379a000000000000000000000000000000000000000000000000000000000815260040161116d906134a7565b60405180910390fd5b61117f8161181a565b50565b60007f01ffc9a7000000000000000000000000000000000000000000000000000000007bffffffffffffffffffffffffffffffffffffffffffffffffffffffff1916827bffffffffffffffffffffffffffffffffffffffffffffffffffffffff1916149050919050565b6111f581611e25565b611234576040517f08c379a000000000000000000000000000000000000000000000000000000000815260040161122b90613209565b60405180910390fd5b50565b600033905090565b816069600083815260200190815260200160002060006101000a81548173ffffffffffffffffffffffffffffffffffffffff021916908373ffffffffffffffffffffffffffffffffffffffff160217905550808273ffffffffffffffffffffffffffffffffffffffff166112b283610b58565b73ffffffffffffffffffffffffffffffffffffffff167f8c5be1e5ebec7d5bd14f71427d1e84f3dd0314c0f7b2291e5b200ac8c7c3b92560405160405180910390a45050565b60008061130483610b58565b90508073ffffffffffffffffffffffffffffffffffffffff168473ffffffffffffffffffffffffffffffffffffffff16148061134657506113458185610e91565b5b8061138457508373ffffffffffffffffffffffffffffffffffffffff1661136c84610617565b73ffffffffffffffffffffffffffffffffffffffff16145b91505092915050565b8273ffffffffffffffffffffffffffffffffffffffff166113ad82610b58565b73ffffffffffffffffffffffffffffffffffffffff1614611403576040517f08c379a00000000000000000000000000000000000000000000000000000000081526004016113fa90613539565b60405180910390fd5b600073ffffffffffffffffffffffffffffffffffffffff168273ffffffffffffffffffffffffffffffffffffffff1603611472576040517f08c379a0000000000000000000000000000000000000000000000000000000008152600401611469906135cb565b60405180910390fd5b61147f8383836001611e66565b8273ffffffffffffffffffffffffffffffffffffffff1661149f82610b58565b73ffffffffffffffffffffffffffffffffffffffff16146114f5576040517f08c379a00000000000000000000000000000000000000000000000000000000081526004016114ec90613539565b60405180910390fd5b6069600082815260200190815260200160002060006101000a81549073ffffffffffffffffffffffffffffffffffffffff02191690556001606860008573ffffffffffffffffffffffffffffffffffffffff1673ffffffffffffffffffffffffffffffffffffffff168152602001908152602001600020600082825403925050819055506001606860008473ffffffffffffffffffffffffffffffffffffffff1673ffffffffffffffffffffffffffffffffffffffff16815260200190815260200160002060008282540192505081905550816067600083815260200190815260200160002060006101000a81548173ffffffffffffffffffffffffffffffffffffffff021916908373ffffffffffffffffffffffffffffffffffffffff160217905550808273ffffffffffffffffffffffffffffffffffffffff168473ffffffffffffffffffffffffffffffffffffffff167fddf252ad1be2c89b69c2b068fc378daa952ba7f163c4a11628f55a4df523b3ef60405160405180910390a46116818383836001611ede565b505050565b61168e611237565b73ffffffffffffffffffffffffffffffffffffffff166116ac610ccf565b73ffffffffffffffffffffffffffffffffffffffff1614611702576040517f08c379a00000000000000000000000000000000000000000000000000000000081526004016116f990613637565b60405180910390fd5b565b6000808273ffffffffffffffffffffffffffffffffffffffff163b119050919050565b600060019054906101000a900460ff16611776576040517f08c379a000000000000000000000000000000000000000000000000000000000815260040161176d906136c9565b60405180910390fd5b6117808282611ee4565b5050565b600060019054906101000a900460ff166117d3576040517f08c379a00000000000000000000000000000000000000000000000000000000081526004016117ca906136c9565b60405180910390fd5b6117db611f57565b565b60006067600083815260200190815260200160002060009054906101000a900473ffffffffffffffffffffffffffffffffffffffff169050919050565b6000609760009054906101000a900473ffffffffffffffffffffffffffffffffffffffff16905081609760006101000a81548173ffffffffffffffffffffffffffffffffffffffff021916908373ffffffffffffffffffffffffffffffffffffffff1602179055508173ffffffffffffffffffffffffffffffffffffffff168173ffffffffffffffffffffffffffffffffffffffff167f8be0079c531659141344cd1fd0a4f28419497f9722a3daafe3b4186f6b6457e060405160405180910390a35050565b8173ffffffffffffffffffffffffffffffffffffffff168373ffffffffffffffffffffffffffffffffffffffff160361194e576040517f08c379a000000000000000000000000000000000000000000000000000000000815260040161194590613735565b60405180910390fd5b80606a60008573ffffffffffffffffffffffffffffffffffffffff1673ffffffffffffffffffffffffffffffffffffffff16815260200190815260200160002060008473ffffffffffffffffffffffffffffffffffffffff1673ffffffffffffffffffffffffffffffffffffffff16815260200190815260200160002060006101000a81548160ff0219169083151502179055508173ffffffffffffffffffffffffffffffffffffffff168373ffffffffffffffffffffffffffffffffffffffff167f17307eab39ab6107e8899845ad3d59bd9653f200f220920489ca2b5937696c3183604051611a3f919061234c565b60405180910390a3505050565b611a5784848461138d565b611a6384848484611fb8565b611aa2576040517f08c379a0000000000000000000000000000000000000000000000000000000008152600401611a99906137c7565b60405180910390fd5b50505050565b606060ca8054611ab790612b9a565b80601f0160208091040260200160405190810160405280929190818152602001828054611ae390612b9a565b8015611b305780601f10611b0557610100808354040283529160200191611b30565b820191906000526020600020905b815481529060010190602001808311611b1357829003601f168201915b5050505050905090565b606060006001611b498461213f565b01905060008167ffffffffffffffff811115611b6857611b67612783565b5b6040519080825280601f01601f191660200182016040528015611b9a5781602001600182028036833780820191505090505b509050600082602001820190505b600115611bfd578080600190039150507f3031323334353637383961626364656600000000000000000000000000000000600a86061a8153600a8581611bf157611bf06137e7565b5b04945060008503611ba8575b819350505050919050565b600073ffffffffffffffffffffffffffffffffffffffff168273ffffffffffffffffffffffffffffffffffffffff1603611c77576040517f08c379a0000000000000000000000000000000000000000000000000000000008152600401611c6e90613862565b60405180910390fd5b611c8081611e25565b15611cc0576040517f08c379a0000000000000000000000000000000000000000000000000000000008152600401611cb7906138ce565b60405180910390fd5b611cce600083836001611e66565b611cd781611e25565b15611d17576040517f08c379a0000000000000000000000000000000000000000000000000000000008152600401611d0e906138ce565b60405180910390fd5b6001606860008473ffffffffffffffffffffffffffffffffffffffff1673ffffffffffffffffffffffffffffffffffffffff16815260200190815260200160002060008282540192505081905550816067600083815260200190815260200160002060006101000a81548173ffffffffffffffffffffffffffffffffffffffff021916908373ffffffffffffffffffffffffffffffffffffffff160217905550808273ffffffffffffffffffffffffffffffffffffffff16600073ffffffffffffffffffffffffffffffffffffffff167fddf252ad1be2c89b69c2b068fc378daa952ba7f163c4a11628f55a4df523b3ef60405160405180910390a4611e21600083836001611ede565b5050565b60008073ffffffffffffffffffffffffffffffffffffffff16611e47836117dd565b73ffffffffffffffffffffffffffffffffffffffff1614159050919050565b600073ffffffffffffffffffffffffffffffffffffffff168473ffffffffffffffffffffffffffffffffffffffff1614611ecc576040517f5fd0f9f500000000000000000000000000000000000000000000000000000000815260040160405180910390fd5b611ed884848484612292565b50505050565b50505050565b600060019054906101000a900460ff16611f33576040517f08c379a0000000000000000000000000000000000000000000000000000000008152600401611f2a906136c9565b60405180910390fd5b8160659081611f4291906130eb565b508060669081611f5291906130eb565b505050565b600060019054906101000a900460ff16611fa6576040517f08c379a0000000000000000000000000000000000000000000000000000000008152600401611f9d906136c9565b60405180910390fd5b611fb6611fb1611237565b61181a565b565b6000611fd98473ffffffffffffffffffffffffffffffffffffffff16611704565b15612132578373ffffffffffffffffffffffffffffffffffffffff1663150b7a02612002611237565b8786866040518563ffffffff1660e01b81526004016120249493929190613932565b6020604051808303816000875af192505050801561206057506040513d601f19601f8201168201806040525081019061205d9190613993565b60015b6120e2573d8060008114612090576040519150601f19603f3d011682016040523d82523d6000602084013e612095565b606091505b5060008151036120da576040517f08c379a00000000000000000000000000000000000000000000000000000000081526004016120d1906137c7565b60405180910390fd5b805181602001fd5b63150b7a0260e01b7bffffffffffffffffffffffffffffffffffffffffffffffffffffffff1916817bffffffffffffffffffffffffffffffffffffffffffffffffffffffff191614915050612137565b600190505b949350505050565b600080600090507a184f03e93ff9f4daa797ed6e38ed64bf6a1f010000000000000000831061219d577a184f03e93ff9f4daa797ed6e38ed64bf6a1f0100000000000000008381612193576121926137e7565b5b0492506040810190505b6d04ee2d6d415b85acef810000000083106121da576d04ee2d6d415b85acef810000000083816121d0576121cf6137e7565b5b0492506020810190505b662386f26fc10000831061220957662386f26fc1000083816121ff576121fe6137e7565b5b0492506010810190505b6305f5e1008310612232576305f5e1008381612228576122276137e7565b5b0492506008810190505b612710831061225757612710838161224d5761224c6137e7565b5b0492506004810190505b6064831061227a57606483816122705761226f6137e7565b5b0492506002810190505b600a8310612289576001810190505b80915050919050565b50505050565b6000604051905090565b600080fd5b600080fd5b60007fffffffff0000000000000000000000000000000000000000000000000000000082169050919050565b6122e1816122ac565b81146122ec57600080fd5b50565b6000813590506122fe816122d8565b92915050565b60006020828403121561231a576123196122a2565b5b6000612328848285016122ef565b91505092915050565b60008115159050919050565b61234681612331565b82525050565b6000602082019050612361600083018461233d565b92915050565b600073ffffffffffffffffffffffffffffffffffffffff82169050919050565b600061239282612367565b9050919050565b6123a281612387565b81146123ad57600080fd5b50565b6000813590506123bf81612399565b92915050565b6000602082840312156123db576123da6122a2565b5b60006123e9848285016123b0565b91505092915050565b600081519050919050565b600082825260208201905092915050565b60005b8381101561242c578082015181840152602081019050612411565b60008484015250505050565b6000601f19601f8301169050919050565b6000612454826123f2565b61245e81856123fd565b935061246e81856020860161240e565b61247781612438565b840191505092915050565b6000602082019050818103600083015261249c8184612449565b905092915050565b6000819050919050565b6124b7816124a4565b81146124c257600080fd5b50565b6000813590506124d4816124ae565b92915050565b6000602082840312156124f0576124ef6122a2565b5b60006124fe848285016124c5565b91505092915050565b61251081612387565b82525050565b600060208201905061252b6000830184612507565b92915050565b60008060408385031215612548576125476122a2565b5b6000612556858286016123b0565b9250506020612567858286016124c5565b9150509250929050565b60008060006060848603121561258a576125896122a2565b5b6000612598868287016123b0565b93505060206125a9868287016123b0565b92505060406125ba868287016124c5565b9150509250925092565b600080fd5b600080fd5b600080fd5b60008083601f8401126125e9576125e86125c4565b5b8235905067ffffffffffffffff811115612606576126056125c9565b5b602083019150836020820283011115612622576126216125ce565b5b9250929050565b60008083601f84011261263f5761263e6125c4565b5b8235905067ffffffffffffffff81111561265c5761265b6125c9565b5b602083019150836020820283011115612678576126776125ce565b5b9250929050565b60008060008060408587031215612699576126986122a2565b5b600085013567ffffffffffffffff8111156126b7576126b66122a7565b5b6126c3878288016125d3565b9450945050602085013567ffffffffffffffff8111156126e6576126e56122a7565b5b6126f287828801612629565b925092505092959194509250565b600061270b82612387565b9050919050565b61271b81612700565b811461272657600080fd5b50565b60008135905061273881612712565b92915050565b60008060408385031215612755576127546122a2565b5b600061276385828601612729565b9250506020612774858286016123b0565b9150509250929050565b600080fd5b7f4e487b7100000000000000000000000000000000000000000000000000000000600052604160045260246000fd5b6127bb82612438565b810181811067ffffffffffffffff821117156127da576127d9612783565b5b80604052505050565b60006127ed612298565b90506127f982826127b2565b919050565b600067ffffffffffffffff82111561281957612818612783565b5b61282282612438565b9050602081019050919050565b82818337600083830152505050565b600061285161284c846127fe565b6127e3565b90508281526020810184848401111561286d5761286c61277e565b5b61287884828561282f565b509392505050565b600082601f830112612895576128946125c4565b5b81356128a584826020860161283e565b91505092915050565b6000602082840312156128c4576128c36122a2565b5b600082013567ffffffffffffffff8111156128e2576128e16122a7565b5b6128ee84828501612880565b91505092915050565b612900816124a4565b82525050565b600060208201905061291b60008301846128f7565b92915050565b61292a81612331565b811461293557600080fd5b50565b60008135905061294781612921565b92915050565b60008060408385031215612964576129636122a2565b5b6000612972858286016123b0565b925050602061298385828601612938565b9150509250929050565b600067ffffffffffffffff8211156129a8576129a7612783565b5b6129b182612438565b9050602081019050919050565b60006129d16129cc8461298d565b6127e3565b9050828152602081018484840111156129ed576129ec61277e565b5b6129f884828561282f565b509392505050565b600082601f830112612a1557612a146125c4565b5b8135612a258482602086016129be565b91505092915050565b60008060008060808587031215612a4857612a476122a2565b5b6000612a56878288016123b0565b9450506020612a67878288016123b0565b9350506040612a78878288016124c5565b925050606085013567ffffffffffffffff811115612a9957612a986122a7565b5b612aa587828801612a00565b91505092959194509250565b6000819050919050565b6000612ad6612ad1612acc84612367565b612ab1565b612367565b9050919050565b6000612ae882612abb565b9050919050565b6000612afa82612add565b9050919050565b612b0a81612aef565b82525050565b6000602082019050612b256000830184612b01565b92915050565b60008060408385031215612b4257612b416122a2565b5b6000612b50858286016123b0565b9250506020612b61858286016123b0565b9150509250929050565b7f4e487b7100000000000000000000000000000000000000000000000000000000600052602260045260246000fd5b60006002820490506001821680612bb257607f821691505b602082108103612bc557612bc4612b6b565b5b50919050565b7f4552433732313a20617070726f76616c20746f2063757272656e74206f776e6560008201527f7200000000000000000000000000000000000000000000000000000000000000602082015250565b6000612c276021836123fd565b9150612c3282612bcb565b604082019050919050565b60006020820190508181036000830152612c5681612c1a565b9050919050565b7f4552433732313a20617070726f76652063616c6c6572206973206e6f7420746f60008201527f6b656e206f776e6572206f7220617070726f76656420666f7220616c6c000000602082015250565b6000612cb9603d836123fd565b9150612cc482612c5d565b604082019050919050565b60006020820190508181036000830152612ce881612cac565b9050919050565b7f4552433732313a2063616c6c6572206973206e6f7420746f6b656e206f776e6560008201527f72206f7220617070726f76656400000000000000000000000000000000000000602082015250565b6000612d4b602d836123fd565b9150612d5682612cef565b604082019050919050565b60006020820190508181036000830152612d7a81612d3e565b9050919050565b7f4e487b7100000000000000000000000000000000000000000000000000000000600052603260045260246000fd5b600060208284031215612dc657612dc56122a2565b5b6000612dd484828501612938565b91505092915050565b7f4e487b7100000000000000000000000000000000000000000000000000000000600052601160045260246000fd5b6000612e17826124a4565b91507fffffffffffffffffffffffffffffffffffffffffffffffffffffffffffffffff8203612e4957612e48612ddd565b5b600182019050919050565b7f496e697469616c697a61626c653a20636f6e747261637420697320616c72656160008201527f647920696e697469616c697a6564000000000000000000000000000000000000602082015250565b6000612eb0602e836123fd565b9150612ebb82612e54565b604082019050919050565b60006020820190508181036000830152612edf81612ea3565b9050919050565b6000819050919050565b600060ff82169050919050565b6000612f18612f13612f0e84612ee6565b612ab1565b612ef0565b9050919050565b612f2881612efd565b82525050565b6000602082019050612f436000830184612f1f565b92915050565b60008190508160005260206000209050919050565b60006020601f8301049050919050565b600082821b905092915050565b600060088302612fab7fffffffffffffffffffffffffffffffffffffffffffffffffffffffffffffffff82612f6e565b612fb58683612f6e565b95508019841693508086168417925050509392505050565b6000612fe8612fe3612fde846124a4565b612ab1565b6124a4565b9050919050565b6000819050919050565b61300283612fcd565b61301661300e82612fef565b848454612f7b565b825550505050565b600090565b61302b61301e565b613036818484612ff9565b505050565b5b8181101561305a5761304f600082613023565b60018101905061303c565b5050565b601f82111561309f5761307081612f49565b61307984612f5e565b81016020851015613088578190505b61309c61309485612f5e565b83018261303b565b50505b505050565b600082821c905092915050565b60006130c2600019846008026130a4565b1980831691505092915050565b60006130db83836130b1565b9150826002028217905092915050565b6130f4826123f2565b67ffffffffffffffff81111561310d5761310c612783565b5b6131178254612b9a565b61312282828561305e565b600060209050601f8311600181146131555760008415613143578287015190505b61314d85826130cf565b8655506131b5565b601f19841661316386612f49565b60005b8281101561318b57848901518255600182019150602085019450602081019050613166565b868310156131a857848901516131a4601f8916826130b1565b8355505b6001600288020188555050505b505050505050565b7f4552433732313a20696e76616c696420746f6b656e2049440000000000000000600082015250565b60006131f36018836123fd565b91506131fe826131bd565b602082019050919050565b60006020820190508181036000830152613222816131e6565b9050919050565b7f4552433732313a2061646472657373207a65726f206973206e6f74206120766160008201527f6c6964206f776e65720000000000000000000000000000000000000000000000602082015250565b60006132856029836123fd565b915061329082613229565b604082019050919050565b600060208201905081810360008301526132b481613278565b9050919050565b600081905092915050565b60006132d1826123f2565b6132db81856132bb565b93506132eb81856020860161240e565b80840191505092915050565b600061330382856132c6565b915061330f82846132c6565b91508190509392505050565b6000819050919050565b600061334061333b6133368461331b565b612ab1565b6124a4565b9050919050565b61335081613325565b82525050565b600082825260208201905092915050565b50565b6000613377600083613356565b915061338282613367565b600082019050919050565b600060c0820190506133a26000830188612507565b6133af60208301876128f7565b6133bc6040830186612507565b6133c960608301856128f7565b6133d66080830184613347565b81810360a08301526133e78161336a565b90509695505050505050565b60008151905061340281612399565b92915050565b60006020828403121561341e5761341d6122a2565b5b600061342c848285016133f3565b91505092915050565b7f4f776e61626c653a206e6577206f776e657220697320746865207a65726f206160008201527f6464726573730000000000000000000000000000000000000000000000000000602082015250565b60006134916026836123fd565b915061349c82613435565b604082019050919050565b600060208201905081810360008301526134c081613484565b9050919050565b7f4552433732313a207472616e736665722066726f6d20696e636f72726563742060008201527f6f776e6572000000000000000000000000000000000000000000000000000000602082015250565b60006135236025836123fd565b915061352e826134c7565b604082019050919050565b6000602082019050818103600083015261355281613516565b9050919050565b7f4552433732313a207472616e7366657220746f20746865207a65726f2061646460008201527f7265737300000000000000000000000000000000000000000000000000000000602082015250565b60006135b56024836123fd565b91506135c082613559565b604082019050919050565b600060208201905081810360008301526135e4816135a8565b9050919050565b7f4f776e61626c653a2063616c6c6572206973206e6f7420746865206f776e6572600082015250565b60006136216020836123fd565b915061362c826135eb565b602082019050919050565b6000602082019050818103600083015261365081613614565b9050919050565b7f496e697469616c697a61626c653a20636f6e7472616374206973206e6f74206960008201527f6e697469616c697a696e67000000000000000000000000000000000000000000602082015250565b60006136b3602b836123fd565b91506136be82613657565b604082019050919050565b600060208201905081810360008301526136e2816136a6565b9050919050565b7f4552433732313a20617070726f766520746f2063616c6c657200000000000000600082015250565b600061371f6019836123fd565b915061372a826136e9565b602082019050919050565b6000602082019050818103600083015261374e81613712565b9050919050565b7f4552433732313a207472616e7366657220746f206e6f6e20455243373231526560008201527f63656976657220696d706c656d656e7465720000000000000000000000000000602082015250565b60006137b16032836123fd565b91506137bc82613755565b604082019050919050565b600060208201905081810360008301526137e0816137a4565b9050919050565b7f4e487b7100000000000000000000000000000000000000000000000000000000600052601260045260246000fd5b7f4552433732313a206d696e7420746f20746865207a65726f2061646472657373600082015250565b600061384c6020836123fd565b915061385782613816565b602082019050919050565b6000602082019050818103600083015261387b8161383f565b9050919050565b7f4552433732313a20746f6b656e20616c7265616479206d696e74656400000000600082015250565b60006138b8601c836123fd565b91506138c382613882565b602082019050919050565b600060208201905081810360008301526138e7816138ab565b9050919050565b600081519050919050565b6000613904826138ee565b61390e8185613356565b935061391e81856020860161240e565b61392781612438565b840191505092915050565b60006080820190506139476000830187612507565b6139546020830186612507565b61396160408301856128f7565b818103606083015261397381846138f9565b905095945050505050565b60008151905061398d816122d8565b92915050565b6000602082840312156139a9576139a86122a2565b5b60006139b78482850161397e565b9150509291505056fea2646970667358221220e16dac090b67b30d54c8940200ee88f3ccf77e15f36cbde64c780a5aef93310a64736f6c63430008130033",
  "linkReferences": {},
  "deployedLinkReferences": {}
}