{
  "_format": "hh-sol-artifact-1",
  "contractName": "AroundEvents",
  "sourceName": "contracts/AroundEvents.sol",
  "abi": [
    {
      "inputs": [],
      "name": "AlreadyReleased",
      "type": "error"
    },
    {
      "inputs": [],
      "name": "AlreadyWithdrawn",
      "type": "error"
    },
    {
      "inputs": [],
      "name": "EventFull",
      "type": "error"
    },
    {
      "inputs": [],
      "name": "FailedTransfer",
      "type": "error"
    },
    {
      "inputs": [],
      "name": "NotActiveMember",
      "type": "error"
    },
    {
      "inputs": [],
      "name": "NotCorrectHost",
      "type": "error"
    },
    {
      "inputs": [],
      "name": "NotHost",
      "type": "error"
    },
    {
      "inputs": [],
      "name": "NotMember",
      "type": "error"
    },
    {
      "anonymous": false,
      "inputs": [
        {
          "indexed": true,
          "internalType": "address",
          "name": "owner",
          "type": "address"
        },
        {
          "indexed": true,
          "internalType": "address",
          "name": "approved",
          "type": "address"
        },
        {
          "indexed": true,
          "internalType": "uint256",
          "name": "tokenId",
          "type": "uint256"
        }
      ],
      "name": "Approval",
      "type": "event"
    },
    {
      "anonymous": false,
      "inputs": [
        {
          "indexed": true,
          "internalType": "address",
          "name": "owner",
          "type": "address"
        },
        {
          "indexed": true,
          "internalType": "address",
          "name": "operator",
          "type": "address"
        },
        {
          "indexed": false,
          "internalType": "bool",
          "name": "approved",
          "type": "bool"
        }
      ],
      "name": "ApprovalForAll",
      "type": "event"
    },
    {
      "anonymous": false,
      "inputs": [
        {
          "indexed": true,
          "internalType": "address",
          "name": "host",
          "type": "address"
        },
        {
          "indexed": false,
          "internalType": "uint256",
          "name": "eventId",
          "type": "uint256"
        },
        {
          "indexed": false,
          "internalType": "uint256",
          "name": "capacity",
          "type": "uint256"
        },
        {
          "indexed": false,
          "internalType": "uint256",
          "name": "price",
          "type": "uint256"
        },
        {
          "indexed": false,
          "internalType": "uint256",
          "name": "deposit",
          "type": "uint256"
        }
      ],
      "name": "EventCreated",
      "type": "event"
    },
    {
      "anonymous": false,
      "inputs": [
        {
          "indexed": true,
          "internalType": "address",
          "name": "guest",
          "type": "address"
        },
        {
          "indexed": false,
          "internalType": "uint256",
          "name": "eventId",
          "type": "uint256"
        }
      ],
      "name": "EventJoined",
      "type": "event"
    },
    {
      "anonymous": false,
      "inputs": [
        {
          "indexed": false,
          "internalType": "uint8",
          "name": "version",
          "type": "uint8"
        }
      ],
      "name": "Initialized",
      "type": "event"
    },
    {
      "anonymous": false,
      "inputs": [
        {
          "indexed": true,
          "internalType": "address",
          "name": "previousOwner",
          "type": "address"
        },
        {
          "indexed": true,
          "internalType": "address",
          "name": "newOwner",
          "type": "address"
        }
      ],
      "name": "OwnershipTransferred",
      "type": "event"
    },
    {
      "anonymous": false,
      "inputs": [
        {
          "indexed": true,
          "internalType": "address",
          "name": "from",
          "type": "address"
        },
        {
          "indexed": true,
          "internalType": "address",
          "name": "to",
          "type": "address"
        },
        {
          "indexed": true,
          "internalType": "uint256",
          "name": "tokenId",
          "type": "uint256"
        }
      ],
      "name": "Transfer",
      "type": "event"
    },
    {
      "inputs": [
        {
          "internalType": "address",
          "name": "to",
          "type": "address"
        },
        {
          "internalType": "uint256",
          "name": "tokenId",
          "type": "uint256"
        }
      ],
      "name": "approve",
      "outputs": [],
      "stateMutability": "nonpayable",
      "type": "function"
    },
    {
      "inputs": [
        {
          "internalType": "address",
          "name": "owner",
          "type": "address"
        }
      ],
      "name": "balanceOf",
      "outputs": [
        {
          "internalType": "uint256",
          "name": "",
          "type": "uint256"
        }
      ],
      "stateMutability": "view",
      "type": "function"
    },
    {
      "inputs": [
        {
          "components": [
            {
              "internalType": "uint256",
              "name": "capacity",
              "type": "uint256"
            },
            {
              "internalType": "uint256",
              "name": "price",
              "type": "uint256"
            },
            {
              "internalType": "uint256",
              "name": "deposit",
              "type": "uint256"
            },
            {
              "internalType": "address[]",
              "name": "guests",
              "type": "address[]"
            },
            {
              "internalType": "bool",
              "name": "hostWithdrawn",
              "type": "bool"
            },
            {
              "internalType": "bool[]",
              "name": "depositReleased",
              "type": "bool[]"
            }
          ],
          "internalType": "struct AroundEvents.Event",
          "name": "newEvent",
          "type": "tuple"
        }
      ],
      "name": "createEvent",
      "outputs": [],
      "stateMutability": "nonpayable",
      "type": "function"
    },
    {
      "inputs": [
        {
          "internalType": "uint256",
          "name": "tokenId",
          "type": "uint256"
        }
      ],
      "name": "getApproved",
      "outputs": [
        {
          "internalType": "address",
          "name": "",
          "type": "address"
        }
      ],
      "stateMutability": "view",
      "type": "function"
    },
    {
      "inputs": [
        {
          "internalType": "uint256",
          "name": "eventId",
          "type": "uint256"
        }
      ],
      "name": "getEvent",
      "outputs": [
        {
          "components": [
            {
              "internalType": "uint256",
              "name": "capacity",
              "type": "uint256"
            },
            {
              "internalType": "uint256",
              "name": "price",
              "type": "uint256"
            },
            {
              "internalType": "uint256",
              "name": "deposit",
              "type": "uint256"
            },
            {
              "internalType": "address[]",
              "name": "guests",
              "type": "address[]"
            },
            {
              "internalType": "bool",
              "name": "hostWithdrawn",
              "type": "bool"
            },
            {
              "internalType": "bool[]",
              "name": "depositReleased",
              "type": "bool[]"
            }
          ],
          "internalType": "struct AroundEvents.Event",
          "name": "",
          "type": "tuple"
        }
      ],
      "stateMutability": "view",
      "type": "function"
    },
    {
      "inputs": [],
      "name": "getEvents",
      "outputs": [
        {
          "components": [
            {
              "internalType": "uint256",
              "name": "capacity",
              "type": "uint256"
            },
            {
              "internalType": "uint256",
              "name": "price",
              "type": "uint256"
            },
            {
              "internalType": "uint256",
              "name": "deposit",
              "type": "uint256"
            },
            {
              "internalType": "address[]",
              "name": "guests",
              "type": "address[]"
            },
            {
              "internalType": "bool",
              "name": "hostWithdrawn",
              "type": "bool"
            },
            {
              "internalType": "bool[]",
              "name": "depositReleased",
              "type": "bool[]"
            }
          ],
          "internalType": "struct AroundEvents.Event[]",
          "name": "",
          "type": "tuple[]"
        }
      ],
      "stateMutability": "view",
      "type": "function"
    },
    {
      "inputs": [],
      "name": "guestMembershipContract",
      "outputs": [
        {
          "internalType": "contract AroundGuestMembership",
          "name": "",
          "type": "address"
        }
      ],
      "stateMutability": "view",
      "type": "function"
    },
    {
      "inputs": [],
      "name": "hostContract",
      "outputs": [
        {
          "internalType": "contract AroundHost",
          "name": "",
          "type": "address"
        }
      ],
      "stateMutability": "view",
      "type": "function"
    },
    {
      "inputs": [
        {
          "internalType": "uint256",
          "name": "eventId",
          "type": "uint256"
        },
        {
          "internalType": "address[]",
          "name": "guests",
          "type": "address[]"
        }
      ],
      "name": "hostReleaseDeposit",
      "outputs": [],
      "stateMutability": "nonpayable",
      "type": "function"
    },
    {
      "inputs": [
        {
          "internalType": "uint256",
          "name": "eventId",
          "type": "uint256"
        }
      ],
      "name": "hostWithdraw",
      "outputs": [],
      "stateMutability": "nonpayable",
      "type": "function"
    },
    {
      "inputs": [
        {
          "internalType": "contract IERC20",
          "name": "_tokenContract",
          "type": "address"
        },
        {
          "internalType": "contract AroundGuestMembership",
          "name": "_guestMembershipContract",
          "type": "address"
        },
        {
          "internalType": "contract AroundHost",
          "name": "_hostContract",
          "type": "address"
        }
      ],
      "name": "initialize",
      "outputs": [],
      "stateMutability": "nonpayable",
      "type": "function"
    },
    {
      "inputs": [
        {
          "internalType": "address",
          "name": "owner",
          "type": "address"
        },
        {
          "internalType": "address",
          "name": "operator",
          "type": "address"
        }
      ],
      "name": "isApprovedForAll",
      "outputs": [
        {
          "internalType": "bool",
          "name": "",
          "type": "bool"
        }
      ],
      "stateMutability": "view",
      "type": "function"
    },
    {
      "inputs": [
        {
          "internalType": "uint256",
          "name": "eventId",
          "type": "uint256"
        },
        {
          "internalType": "uint256",
          "name": "membershipId",
          "type": "uint256"
        }
      ],
      "name": "joinEvent",
      "outputs": [],
      "stateMutability": "nonpayable",
      "type": "function"
    },
    {
      "inputs": [],
      "name": "name",
      "outputs": [
        {
          "internalType": "string",
          "name": "",
          "type": "string"
        }
      ],
      "stateMutability": "view",
      "type": "function"
    },
    {
      "inputs": [],
      "name": "owner",
      "outputs": [
        {
          "internalType": "address",
          "name": "",
          "type": "address"
        }
      ],
      "stateMutability": "view",
      "type": "function"
    },
    {
      "inputs": [
        {
          "internalType": "uint256",
          "name": "tokenId",
          "type": "uint256"
        }
      ],
      "name": "ownerOf",
      "outputs": [
        {
          "internalType": "address",
          "name": "",
          "type": "address"
        }
      ],
      "stateMutability": "view",
      "type": "function"
    },
    {
      "inputs": [],
      "name": "renounceOwnership",
      "outputs": [],
      "stateMutability": "nonpayable",
      "type": "function"
    },
    {
      "inputs": [
        {
          "internalType": "address",
          "name": "from",
          "type": "address"
        },
        {
          "internalType": "address",
          "name": "to",
          "type": "address"
        },
        {
          "internalType": "uint256",
          "name": "tokenId",
          "type": "uint256"
        }
      ],
      "name": "safeTransferFrom",
      "outputs": [],
      "stateMutability": "nonpayable",
      "type": "function"
    },
    {
      "inputs": [
        {
          "internalType": "address",
          "name": "from",
          "type": "address"
        },
        {
          "internalType": "address",
          "name": "to",
          "type": "address"
        },
        {
          "internalType": "uint256",
          "name": "tokenId",
          "type": "uint256"
        },
        {
          "internalType": "bytes",
          "name": "data",
          "type": "bytes"
        }
      ],
      "name": "safeTransferFrom",
      "outputs": [],
      "stateMutability": "nonpayable",
      "type": "function"
    },
    {
      "inputs": [
        {
          "internalType": "address",
          "name": "operator",
          "type": "address"
        },
        {
          "internalType": "bool",
          "name": "approved",
          "type": "bool"
        }
      ],
      "name": "setApprovalForAll",
      "outputs": [],
      "stateMutability": "nonpayable",
      "type": "function"
    },
    {
      "inputs": [
        {
          "internalType": "string",
          "name": "_uri",
          "type": "string"
        }
      ],
      "name": "setBaseURI",
      "outputs": [],
      "stateMutability": "nonpayable",
      "type": "function"
    },
    {
      "inputs": [
        {
          "internalType": "bytes4",
          "name": "interfaceId",
          "type": "bytes4"
        }
      ],
      "name": "supportsInterface",
      "outputs": [
        {
          "internalType": "bool",
          "name": "",
          "type": "bool"
        }
      ],
      "stateMutability": "view",
      "type": "function"
    },
    {
      "inputs": [],
      "name": "symbol",
      "outputs": [
        {
          "internalType": "string",
          "name": "",
          "type": "string"
        }
      ],
      "stateMutability": "view",
      "type": "function"
    },
    {
      "inputs": [],
      "name": "tokenContract",
      "outputs": [
        {
          "internalType": "contract IERC20",
          "name": "",
          "type": "address"
        }
      ],
      "stateMutability": "view",
      "type": "function"
    },
    {
      "inputs": [
        {
          "internalType": "uint256",
          "name": "tokenId",
          "type": "uint256"
        }
      ],
      "name": "tokenURI",
      "outputs": [
        {
          "internalType": "string",
          "name": "",
          "type": "string"
        }
      ],
      "stateMutability": "view",
      "type": "function"
    },
    {
      "inputs": [
        {
          "internalType": "address",
          "name": "from",
          "type": "address"
        },
        {
          "internalType": "address",
          "name": "to",
          "type": "address"
        },
        {
          "internalType": "uint256",
          "name": "tokenId",
          "type": "uint256"
        }
      ],
      "name": "transferFrom",
      "outputs": [],
      "stateMutability": "nonpayable",
      "type": "function"
    },
    {
      "inputs": [
        {
          "internalType": "address",
          "name": "newOwner",
          "type": "address"
        }
      ],
      "name": "transferOwnership",
      "outputs": [],
      "stateMutability": "nonpayable",
      "type": "function"
    }
  ],
  "bytecode": "0x608060405234801561001057600080fd5b5061514e806100206000396000f3fe608060405234801561001057600080fd5b50600436106101a95760003560e01c80636d1884e0116100f9578063ae73c47e11610097578063c87b56dd11610071578063c87b56dd14610492578063e985e9c5146104c2578063f2fde38b146104f2578063f45337491461050e576101a9565b8063ae73c47e1461043e578063b88d4fde1461045a578063c0c53b8b14610476576101a9565b80638da5cb5b116100d35780638da5cb5b146103c857806395d89b41146103e65780639cfd373114610404578063a22cb46514610422576101a9565b80636d1884e01461035e57806370a082311461038e578063715018a6146103be576101a9565b80633db872271161016657806355a373d61161014057806355a373d6146102d857806355f804b3146102f65780636352211e14610312578063681d3fcd14610342576101a9565b80633db8722714610282578063404aa8f91461029e57806342842e0e146102bc576101a9565b806301ffc9a7146101ae57806306fdde03146101de578063081812fc146101fc578063095ea7b31461022c57806323b872dd1461024857806325553e9c14610264575b600080fd5b6101c860048036038101906101c39190612da4565b61052a565b6040516101d59190612dec565b60405180910390f35b6101e661060c565b6040516101f39190612e97565b60405180910390f35b61021660048036038101906102119190612eef565b61069e565b6040516102239190612f5d565b60405180910390f35b61024660048036038101906102419190612fa4565b6106e4565b005b610262600480360381019061025d9190612fe4565b6107fb565b005b61026c61085b565b6040516102799190613096565b60405180910390f35b61029c60048036038101906102979190613116565b610881565b005b6102a6610b00565b6040516102b39190613453565b60405180910390f35b6102d660048036038101906102d19190612fe4565b610d10565b005b6102e0610d30565b6040516102ed9190613496565b60405180910390f35b610310600480360381019061030b91906135e1565b610d56565b005b61032c60048036038101906103279190612eef565b610d71565b6040516103399190612f5d565b60405180910390f35b61035c6004803603810190610357919061364e565b610df7565b005b61037860048036038101906103739190612eef565b610ea5565b6040516103859190613727565b60405180910390f35b6103a860048036038101906103a39190613749565b611016565b6040516103b59190613785565b60405180910390f35b6103c66110cd565b005b6103d06110e1565b6040516103dd9190612f5d565b60405180910390f35b6103ee61110b565b6040516103fb9190612e97565b60405180910390f35b61040c61119d565b60405161041991906137c1565b60405180910390f35b61043c60048036038101906104379190613808565b6111c3565b005b61045860048036038101906104539190612eef565b6111d9565b005b610474600480360381019061046f91906138e9565b6113e9565b005b610490600480360381019061048b9190613a26565b61144b565b005b6104ac60048036038101906104a79190612eef565b6116c3565b6040516104b99190612e97565b60405180910390f35b6104dc60048036038101906104d79190613a79565b61172b565b6040516104e99190612dec565b60405180910390f35b61050c60048036038101906105079190613749565b6117bf565b005b61052860048036038101906105239190613ab9565b611842565b005b60007f80ac58cd000000000000000000000000000000000000000000000000000000007bffffffffffffffffffffffffffffffffffffffffffffffffffffffff1916827bffffffffffffffffffffffffffffffffffffffffffffffffffffffff191614806105f557507f5b5e139f000000000000000000000000000000000000000000000000000000007bffffffffffffffffffffffffffffffffffffffffffffffffffffffff1916827bffffffffffffffffffffffffffffffffffffffffffffffffffffffff1916145b80610605575061060482611c62565b5b9050919050565b60606065805461061b90613b28565b80601f016020809104026020016040519081016040528092919081815260200182805461064790613b28565b80156106945780601f1061066957610100808354040283529160200191610694565b820191906000526020600020905b81548152906001019060200180831161067757829003601f168201915b5050505050905090565b60006106a982611ccc565b6069600083815260200190815260200160002060009054906101000a900473ffffffffffffffffffffffffffffffffffffffff169050919050565b60006106ef82610d71565b90508073ffffffffffffffffffffffffffffffffffffffff168373ffffffffffffffffffffffffffffffffffffffff160361075f576040517f08c379a000000000000000000000000000000000000000000000000000000000815260040161075690613bcb565b60405180910390fd5b8073ffffffffffffffffffffffffffffffffffffffff1661077e611d17565b73ffffffffffffffffffffffffffffffffffffffff1614806107ad57506107ac816107a7611d17565b61172b565b5b6107ec576040517f08c379a00000000000000000000000000000000000000000000000000000000081526004016107e390613c5d565b60405180910390fd5b6107f68383611d1f565b505050565b61080c610806611d17565b82611dd8565b61084b576040517f08c379a000000000000000000000000000000000000000000000000000000000815260040161084290613cef565b60405180910390fd5b610856838383611e6d565b505050565b60cd60009054906101000a900473ffffffffffffffffffffffffffffffffffffffff1681565b3373ffffffffffffffffffffffffffffffffffffffff166108a184610d71565b73ffffffffffffffffffffffffffffffffffffffff16146108ee576040517fe7f6bea100000000000000000000000000000000000000000000000000000000815260040160405180910390fd5b60005b82829050811015610afa5760cb6000858152602001908152602001600020600501818154811061092457610923613d0f565b5b90600052602060002090602091828204019190069054906101000a900460ff161561097b576040517f63b4904e00000000000000000000000000000000000000000000000000000000815260040160405180910390fd5b600160cb600086815260200190815260200160002060050182815481106109a5576109a4613d0f565b5b90600052602060002090602091828204019190066101000a81548160ff021916908315150217905550600060cc60009054906101000a900473ffffffffffffffffffffffffffffffffffffffff1673ffffffffffffffffffffffffffffffffffffffff1663a9059cbb858585818110610a2157610a20613d0f565b5b9050602002016020810190610a369190613749565b60cb6000898152602001908152602001600020600201546040518363ffffffff1660e01b8152600401610a6a929190613d3e565b6020604051808303816000875af1158015610a89573d6000803e3d6000fd5b505050506040513d601f19601f82011682018060405250810190610aad9190613d7c565b905080610ae6576040517fbfa871c500000000000000000000000000000000000000000000000000000000815260040160405180910390fd5b508080610af290613dd8565b9150506108f1565b50505050565b6060600060c95467ffffffffffffffff811115610b2057610b1f6134b6565b5b604051908082528060200260200182016040528015610b5957816020015b610b46612d00565b815260200190600190039081610b3e5790505b50905060005b60c954811015610d085760cb6000600183610b7a9190613e20565b81526020019081526020016000206040518060c001604052908160008201548152602001600182015481526020016002820154815260200160038201805480602002602001604051908101604052809291908181526020018280548015610c3657602002820191906000526020600020905b8160009054906101000a900473ffffffffffffffffffffffffffffffffffffffff1673ffffffffffffffffffffffffffffffffffffffff1681526020019060010190808311610bec575b505050505081526020016004820160009054906101000a900460ff1615151515815260200160058201805480602002602001604051908101604052809291908181526020018280548015610cce57602002820191906000526020600020906000905b82829054906101000a900460ff16151581526020019060010190602082600001049283019260010382029150808411610c985790505b505050505081525050828281518110610cea57610ce9613d0f565b5b60200260200101819052508080610d0090613dd8565b915050610b5f565b508091505090565b610d2b838383604051806020016040528060008152506113e9565b505050565b60cc60009054906101000a900473ffffffffffffffffffffffffffffffffffffffff1681565b610d5e612166565b8060ca9081610d6d9190613ff6565b5050565b600080610d7d836121e4565b9050600073ffffffffffffffffffffffffffffffffffffffff168173ffffffffffffffffffffffffffffffffffffffff1603610dee576040517f08c379a0000000000000000000000000000000000000000000000000000000008152600401610de590614114565b60405180910390fd5b80915050919050565b60c96000815480929190610e0a90613dd8565b91905055508060cb600060c95481526020019081526020016000208181610e319190614832565b905050610e403360c954612221565b3373ffffffffffffffffffffffffffffffffffffffff167f27d696bf3afdbcdffb0e3a016cc2a9462af52cda098550745909870de513e6c360c954836000013584602001358560400135604051610e9a9493929190614840565b60405180910390a250565b610ead612d00565b60cb60008381526020019081526020016000206040518060c001604052908160008201548152602001600182015481526020016002820154815260200160038201805480602002602001604051908101604052809291908181526020018280548015610f6e57602002820191906000526020600020905b8160009054906101000a900473ffffffffffffffffffffffffffffffffffffffff1673ffffffffffffffffffffffffffffffffffffffff1681526020019060010190808311610f24575b505050505081526020016004820160009054906101000a900460ff161515151581526020016005820180548060200260200160405190810160405280929190818152602001828054801561100657602002820191906000526020600020906000905b82829054906101000a900460ff16151581526020019060010190602082600001049283019260010382029150808411610fd05790505b5050505050815250509050919050565b60008073ffffffffffffffffffffffffffffffffffffffff168273ffffffffffffffffffffffffffffffffffffffff1603611086576040517f08c379a000000000000000000000000000000000000000000000000000000000815260040161107d906148f7565b60405180910390fd5b606860008373ffffffffffffffffffffffffffffffffffffffff1673ffffffffffffffffffffffffffffffffffffffff168152602001908152602001600020549050919050565b6110d5612166565b6110df600061243e565b565b6000609760009054906101000a900473ffffffffffffffffffffffffffffffffffffffff16905090565b60606066805461111a90613b28565b80601f016020809104026020016040519081016040528092919081815260200182805461114690613b28565b80156111935780601f1061116857610100808354040283529160200191611193565b820191906000526020600020905b81548152906001019060200180831161117657829003601f168201915b5050505050905090565b60ce60009054906101000a900473ffffffffffffffffffffffffffffffffffffffff1681565b6111d56111ce611d17565b8383612504565b5050565b3373ffffffffffffffffffffffffffffffffffffffff166111f982610d71565b73ffffffffffffffffffffffffffffffffffffffff1614611246576040517fe7f6bea100000000000000000000000000000000000000000000000000000000815260040160405180910390fd5b60cb600082815260200190815260200160002060040160009054906101000a900460ff16156112a1576040517f6507689f00000000000000000000000000000000000000000000000000000000815260040160405180910390fd5b600160cb600083815260200190815260200160002060040160006101000a81548160ff021916908315150217905550600060cc60009054906101000a900473ffffffffffffffffffffffffffffffffffffffff1673ffffffffffffffffffffffffffffffffffffffff1663a9059cbb3360cb60008681526020019081526020016000206003018054905060cb60008781526020019081526020016000206001015461134c9190614239565b6040518363ffffffff1660e01b8152600401611369929190613d3e565b6020604051808303816000875af1158015611388573d6000803e3d6000fd5b505050506040513d601f19601f820116820180604052508101906113ac9190613d7c565b9050806113e5576040517fbfa871c500000000000000000000000000000000000000000000000000000000815260040160405180910390fd5b5050565b6113fa6113f4611d17565b83611dd8565b611439576040517f08c379a000000000000000000000000000000000000000000000000000000000815260040161143090613cef565b60405180910390fd5b61144584848484612670565b50505050565b60008060019054906101000a900460ff1615905080801561147c5750600160008054906101000a900460ff1660ff16105b806114a9575061148b306126cc565b1580156114a85750600160008054906101000a900460ff1660ff16145b5b6114e8576040517f08c379a00000000000000000000000000000000000000000000000000000000081526004016114df90614989565b60405180910390fd5b60016000806101000a81548160ff021916908360ff1602179055508015611525576001600060016101000a81548160ff0219169083151502179055505b6115996040518060400160405280600d81526020017f41726f756e64204576656e7473000000000000000000000000000000000000008152506040518060400160405280600b81526020017f41524f554e444556454e540000000000000000000000000000000000000000008152506126ef565b6115a161274c565b8360cc60006101000a81548173ffffffffffffffffffffffffffffffffffffffff021916908373ffffffffffffffffffffffffffffffffffffffff1602179055508260ce60006101000a81548173ffffffffffffffffffffffffffffffffffffffff021916908373ffffffffffffffffffffffffffffffffffffffff1602179055508160cd60006101000a81548173ffffffffffffffffffffffffffffffffffffffff021916908373ffffffffffffffffffffffffffffffffffffffff16021790555080156116bd5760008060016101000a81548160ff0219169083151502179055507f7f26b83ff96e1f2b6a682f133852f6798a09c465da95921460cefb384740249860016040516116b491906149f1565b60405180910390a15b50505050565b60606116ce82611ccc565b60006116d86127a5565b905060008151116116f85760405180602001604052806000815250611723565b8061170284612837565b604051602001611713929190614a48565b6040516020818303038152906040525b915050919050565b6000606a60008473ffffffffffffffffffffffffffffffffffffffff1673ffffffffffffffffffffffffffffffffffffffff16815260200190815260200160002060008373ffffffffffffffffffffffffffffffffffffffff1673ffffffffffffffffffffffffffffffffffffffff16815260200190815260200160002060009054906101000a900460ff16905092915050565b6117c7612166565b600073ffffffffffffffffffffffffffffffffffffffff168173ffffffffffffffffffffffffffffffffffffffff1603611836576040517f08c379a000000000000000000000000000000000000000000000000000000000815260040161182d90614ade565b60405180910390fd5b61183f8161243e565b50565b803373ffffffffffffffffffffffffffffffffffffffff1660ce60009054906101000a900473ffffffffffffffffffffffffffffffffffffffff1673ffffffffffffffffffffffffffffffffffffffff16636352211e836040518263ffffffff1660e01b81526004016118b59190613785565b602060405180830381865afa1580156118d2573d6000803e3d6000fd5b505050506040513d601f19601f820116820180604052508101906118f69190614b13565b73ffffffffffffffffffffffffffffffffffffffff1614611943576040517f291fc44200000000000000000000000000000000000000000000000000000000815260040160405180910390fd5b4260ce60009054906101000a900473ffffffffffffffffffffffffffffffffffffffff1673ffffffffffffffffffffffffffffffffffffffff166338fbf2c6836040518263ffffffff1660e01b815260040161199f9190613785565b6040805180830381865afa1580156119bb573d6000803e3d6000fd5b505050506040513d601f19601f820116820180604052508101906119df9190614baa565b602001511015611a1b576040517fb43f239800000000000000000000000000000000000000000000000000000000815260040160405180910390fd5b600060cc60009054906101000a900473ffffffffffffffffffffffffffffffffffffffff1673ffffffffffffffffffffffffffffffffffffffff166323b872dd333060cb60008981526020019081526020016000206002015460cb60008a815260200190815260200160002060010154611a959190613e20565b6040518463ffffffff1660e01b8152600401611ab393929190614bd7565b6020604051808303816000875af1158015611ad2573d6000803e3d6000fd5b505050506040513d601f19601f82011682018060405250810190611af69190613d7c565b905080611b2f576040517fbfa871c500000000000000000000000000000000000000000000000000000000815260040160405180910390fd5b60cb60008581526020019081526020016000206000015460cb60008681526020019081526020016000206003018054905010611b97576040517ffb8e7ec200000000000000000000000000000000000000000000000000000000815260040160405180910390fd5b60cb6000858152602001908152602001600020600301339080600181540180825580915050600190039060005260206000200160009091909190916101000a81548173ffffffffffffffffffffffffffffffffffffffff021916908373ffffffffffffffffffffffffffffffffffffffff1602179055503373ffffffffffffffffffffffffffffffffffffffff167f7850181cf9c4914a1e6dc81969728f83eed741fec646ce310267edc88fc53b2f85604051611c549190613785565b60405180910390a250505050565b60007f01ffc9a7000000000000000000000000000000000000000000000000000000007bffffffffffffffffffffffffffffffffffffffffffffffffffffffff1916827bffffffffffffffffffffffffffffffffffffffffffffffffffffffff1916149050919050565b611cd581612905565b611d14576040517f08c379a0000000000000000000000000000000000000000000000000000000008152600401611d0b90614114565b60405180910390fd5b50565b600033905090565b816069600083815260200190815260200160002060006101000a81548173ffffffffffffffffffffffffffffffffffffffff021916908373ffffffffffffffffffffffffffffffffffffffff160217905550808273ffffffffffffffffffffffffffffffffffffffff16611d9283610d71565b73ffffffffffffffffffffffffffffffffffffffff167f8c5be1e5ebec7d5bd14f71427d1e84f3dd0314c0f7b2291e5b200ac8c7c3b92560405160405180910390a45050565b600080611de483610d71565b90508073ffffffffffffffffffffffffffffffffffffffff168473ffffffffffffffffffffffffffffffffffffffff161480611e265750611e25818561172b565b5b80611e6457508373ffffffffffffffffffffffffffffffffffffffff16611e4c8461069e565b73ffffffffffffffffffffffffffffffffffffffff16145b91505092915050565b8273ffffffffffffffffffffffffffffffffffffffff16611e8d82610d71565b73ffffffffffffffffffffffffffffffffffffffff1614611ee3576040517f08c379a0000000000000000000000000000000000000000000000000000000008152600401611eda90614c80565b60405180910390fd5b600073ffffffffffffffffffffffffffffffffffffffff168273ffffffffffffffffffffffffffffffffffffffff1603611f52576040517f08c379a0000000000000000000000000000000000000000000000000000000008152600401611f4990614d12565b60405180910390fd5b611f5f8383836001612946565b8273ffffffffffffffffffffffffffffffffffffffff16611f7f82610d71565b73ffffffffffffffffffffffffffffffffffffffff1614611fd5576040517f08c379a0000000000000000000000000000000000000000000000000000000008152600401611fcc90614c80565b60405180910390fd5b6069600082815260200190815260200160002060006101000a81549073ffffffffffffffffffffffffffffffffffffffff02191690556001606860008573ffffffffffffffffffffffffffffffffffffffff1673ffffffffffffffffffffffffffffffffffffffff168152602001908152602001600020600082825403925050819055506001606860008473ffffffffffffffffffffffffffffffffffffffff1673ffffffffffffffffffffffffffffffffffffffff16815260200190815260200160002060008282540192505081905550816067600083815260200190815260200160002060006101000a81548173ffffffffffffffffffffffffffffffffffffffff021916908373ffffffffffffffffffffffffffffffffffffffff160217905550808273ffffffffffffffffffffffffffffffffffffffff168473ffffffffffffffffffffffffffffffffffffffff167fddf252ad1be2c89b69c2b068fc378daa952ba7f163c4a11628f55a4df523b3ef60405160405180910390a4612161838383600161294c565b505050565b61216e611d17565b73ffffffffffffffffffffffffffffffffffffffff1661218c6110e1565b73ffffffffffffffffffffffffffffffffffffffff16146121e2576040517f08c379a00000000000000000000000000000000000000000000000000000000081526004016121d990614d7e565b60405180910390fd5b565b60006067600083815260200190815260200160002060009054906101000a900473ffffffffffffffffffffffffffffffffffffffff169050919050565b600073ffffffffffffffffffffffffffffffffffffffff168273ffffffffffffffffffffffffffffffffffffffff1603612290576040517f08c379a000000000000000000000000000000000000000000000000000000000815260040161228790614dea565b60405180910390fd5b61229981612905565b156122d9576040517f08c379a00000000000000000000000000000000000000000000000000000000081526004016122d090614e56565b60405180910390fd5b6122e7600083836001612946565b6122f081612905565b15612330576040517f08c379a000000000000000000000000000000000000000000000000000000000815260040161232790614e56565b60405180910390fd5b6001606860008473ffffffffffffffffffffffffffffffffffffffff1673ffffffffffffffffffffffffffffffffffffffff16815260200190815260200160002060008282540192505081905550816067600083815260200190815260200160002060006101000a81548173ffffffffffffffffffffffffffffffffffffffff021916908373ffffffffffffffffffffffffffffffffffffffff160217905550808273ffffffffffffffffffffffffffffffffffffffff16600073ffffffffffffffffffffffffffffffffffffffff167fddf252ad1be2c89b69c2b068fc378daa952ba7f163c4a11628f55a4df523b3ef60405160405180910390a461243a60008383600161294c565b5050565b6000609760009054906101000a900473ffffffffffffffffffffffffffffffffffffffff16905081609760006101000a81548173ffffffffffffffffffffffffffffffffffffffff021916908373ffffffffffffffffffffffffffffffffffffffff1602179055508173ffffffffffffffffffffffffffffffffffffffff168173ffffffffffffffffffffffffffffffffffffffff167f8be0079c531659141344cd1fd0a4f28419497f9722a3daafe3b4186f6b6457e060405160405180910390a35050565b8173ffffffffffffffffffffffffffffffffffffffff168373ffffffffffffffffffffffffffffffffffffffff1603612572576040517f08c379a000000000000000000000000000000000000000000000000000000000815260040161256990614ec2565b60405180910390fd5b80606a60008573ffffffffffffffffffffffffffffffffffffffff1673ffffffffffffffffffffffffffffffffffffffff16815260200190815260200160002060008473ffffffffffffffffffffffffffffffffffffffff1673ffffffffffffffffffffffffffffffffffffffff16815260200190815260200160002060006101000a81548160ff0219169083151502179055508173ffffffffffffffffffffffffffffffffffffffff168373ffffffffffffffffffffffffffffffffffffffff167f17307eab39ab6107e8899845ad3d59bd9653f200f220920489ca2b5937696c31836040516126639190612dec565b60405180910390a3505050565b61267b848484611e6d565b61268784848484612952565b6126c6576040517f08c379a00000000000000000000000000000000000000000000000000000000081526004016126bd90614f54565b60405180910390fd5b50505050565b6000808273ffffffffffffffffffffffffffffffffffffffff163b119050919050565b600060019054906101000a900460ff1661273e576040517f08c379a000000000000000000000000000000000000000000000000000000000815260040161273590614fe6565b60405180910390fd5b6127488282612ad9565b5050565b600060019054906101000a900460ff1661279b576040517f08c379a000000000000000000000000000000000000000000000000000000000815260040161279290614fe6565b60405180910390fd5b6127a3612b4c565b565b606060ca80546127b490613b28565b80601f01602080910402602001604051908101604052809291908181526020018280546127e090613b28565b801561282d5780601f106128025761010080835404028352916020019161282d565b820191906000526020600020905b81548152906001019060200180831161281057829003601f168201915b5050505050905090565b60606000600161284684612bad565b01905060008167ffffffffffffffff811115612865576128646134b6565b5b6040519080825280601f01601f1916602001820160405280156128975781602001600182028036833780820191505090505b509050600082602001820190505b6001156128fa578080600190039150507f3031323334353637383961626364656600000000000000000000000000000000600a86061a8153600a85816128ee576128ed615006565b5b049450600085036128a5575b819350505050919050565b60008073ffffffffffffffffffffffffffffffffffffffff16612927836121e4565b73ffffffffffffffffffffffffffffffffffffffff1614159050919050565b50505050565b50505050565b60006129738473ffffffffffffffffffffffffffffffffffffffff166126cc565b15612acc578373ffffffffffffffffffffffffffffffffffffffff1663150b7a0261299c611d17565b8786866040518563ffffffff1660e01b81526004016129be949392919061508a565b6020604051808303816000875af19250505080156129fa57506040513d601f19601f820116820180604052508101906129f791906150eb565b60015b612a7c573d8060008114612a2a576040519150601f19603f3d011682016040523d82523d6000602084013e612a2f565b606091505b506000815103612a74576040517f08c379a0000000000000000000000000000000000000000000000000000000008152600401612a6b90614f54565b60405180910390fd5b805181602001fd5b63150b7a0260e01b7bffffffffffffffffffffffffffffffffffffffffffffffffffffffff1916817bffffffffffffffffffffffffffffffffffffffffffffffffffffffff191614915050612ad1565b600190505b949350505050565b600060019054906101000a900460ff16612b28576040517f08c379a0000000000000000000000000000000000000000000000000000000008152600401612b1f90614fe6565b60405180910390fd5b8160659081612b379190613ff6565b508060669081612b479190613ff6565b505050565b600060019054906101000a900460ff16612b9b576040517f08c379a0000000000000000000000000000000000000000000000000000000008152600401612b9290614fe6565b60405180910390fd5b612bab612ba6611d17565b61243e565b565b600080600090507a184f03e93ff9f4daa797ed6e38ed64bf6a1f0100000000000000008310612c0b577a184f03e93ff9f4daa797ed6e38ed64bf6a1f0100000000000000008381612c0157612c00615006565b5b0492506040810190505b6d04ee2d6d415b85acef81000000008310612c48576d04ee2d6d415b85acef81000000008381612c3e57612c3d615006565b5b0492506020810190505b662386f26fc100008310612c7757662386f26fc100008381612c6d57612c6c615006565b5b0492506010810190505b6305f5e1008310612ca0576305f5e1008381612c9657612c95615006565b5b0492506008810190505b6127108310612cc5576127108381612cbb57612cba615006565b5b0492506004810190505b60648310612ce85760648381612cde57612cdd615006565b5b0492506002810190505b600a8310612cf7576001810190505b80915050919050565b6040518060c0016040528060008152602001600081526020016000815260200160608152602001600015158152602001606081525090565b6000604051905090565b600080fd5b600080fd5b60007fffffffff0000000000000000000000000000000000000000000000000000000082169050919050565b612d8181612d4c565b8114612d8c57600080fd5b50565b600081359050612d9e81612d78565b92915050565b600060208284031215612dba57612db9612d42565b5b6000612dc884828501612d8f565b91505092915050565b60008115159050919050565b612de681612dd1565b82525050565b6000602082019050612e016000830184612ddd565b92915050565b600081519050919050565b600082825260208201905092915050565b60005b83811015612e41578082015181840152602081019050612e26565b60008484015250505050565b6000601f19601f8301169050919050565b6000612e6982612e07565b612e738185612e12565b9350612e83818560208601612e23565b612e8c81612e4d565b840191505092915050565b60006020820190508181036000830152612eb18184612e5e565b905092915050565b6000819050919050565b612ecc81612eb9565b8114612ed757600080fd5b50565b600081359050612ee981612ec3565b92915050565b600060208284031215612f0557612f04612d42565b5b6000612f1384828501612eda565b91505092915050565b600073ffffffffffffffffffffffffffffffffffffffff82169050919050565b6000612f4782612f1c565b9050919050565b612f5781612f3c565b82525050565b6000602082019050612f726000830184612f4e565b92915050565b612f8181612f3c565b8114612f8c57600080fd5b50565b600081359050612f9e81612f78565b92915050565b60008060408385031215612fbb57612fba612d42565b5b6000612fc985828601612f8f565b9250506020612fda85828601612eda565b9150509250929050565b600080600060608486031215612ffd57612ffc612d42565b5b600061300b86828701612f8f565b935050602061301c86828701612f8f565b925050604061302d86828701612eda565b9150509250925092565b6000819050919050565b600061305c61305761305284612f1c565b613037565b612f1c565b9050919050565b600061306e82613041565b9050919050565b600061308082613063565b9050919050565b61309081613075565b82525050565b60006020820190506130ab6000830184613087565b92915050565b600080fd5b600080fd5b600080fd5b60008083601f8401126130d6576130d56130b1565b5b8235905067ffffffffffffffff8111156130f3576130f26130b6565b5b60208301915083602082028301111561310f5761310e6130bb565b5b9250929050565b60008060006040848603121561312f5761312e612d42565b5b600061313d86828701612eda565b935050602084013567ffffffffffffffff81111561315e5761315d612d47565b5b61316a868287016130c0565b92509250509250925092565b600081519050919050565b600082825260208201905092915050565b6000819050602082019050919050565b6131ab81612eb9565b82525050565b600081519050919050565b600082825260208201905092915050565b6000819050602082019050919050565b6131e681612f3c565b82525050565b60006131f883836131dd565b60208301905092915050565b6000602082019050919050565b600061321c826131b1565b61322681856131bc565b9350613231836131cd565b8060005b8381101561326257815161324988826131ec565b975061325483613204565b925050600181019050613235565b5085935050505092915050565b61327881612dd1565b82525050565b600081519050919050565b600082825260208201905092915050565b6000819050602082019050919050565b60006132b6838361326f565b60208301905092915050565b6000602082019050919050565b60006132da8261327e565b6132e48185613289565b93506132ef8361329a565b8060005b8381101561332057815161330788826132aa565b9750613312836132c2565b9250506001810190506132f3565b5085935050505092915050565b600060c08301600083015161334560008601826131a2565b50602083015161335860208601826131a2565b50604083015161336b60408601826131a2565b50606083015184820360608601526133838282613211565b9150506080830151613398608086018261326f565b5060a083015184820360a08601526133b082826132cf565b9150508091505092915050565b60006133c9838361332d565b905092915050565b6000602082019050919050565b60006133e982613176565b6133f38185613181565b93508360208202850161340585613192565b8060005b85811015613441578484038952815161342285826133bd565b945061342d836133d1565b925060208a01995050600181019050613409565b50829750879550505050505092915050565b6000602082019050818103600083015261346d81846133de565b905092915050565b600061348082613063565b9050919050565b61349081613475565b82525050565b60006020820190506134ab6000830184613487565b92915050565b600080fd5b7f4e487b7100000000000000000000000000000000000000000000000000000000600052604160045260246000fd5b6134ee82612e4d565b810181811067ffffffffffffffff8211171561350d5761350c6134b6565b5b80604052505050565b6000613520612d38565b905061352c82826134e5565b919050565b600067ffffffffffffffff82111561354c5761354b6134b6565b5b61355582612e4d565b9050602081019050919050565b82818337600083830152505050565b600061358461357f84613531565b613516565b9050828152602081018484840111156135a05761359f6134b1565b5b6135ab848285613562565b509392505050565b600082601f8301126135c8576135c76130b1565b5b81356135d8848260208601613571565b91505092915050565b6000602082840312156135f7576135f6612d42565b5b600082013567ffffffffffffffff81111561361557613614612d47565b5b613621848285016135b3565b91505092915050565b600080fd5b600060c082840312156136455761364461362a565b5b81905092915050565b60006020828403121561366457613663612d42565b5b600082013567ffffffffffffffff81111561368257613681612d47565b5b61368e8482850161362f565b91505092915050565b600060c0830160008301516136af60008601826131a2565b5060208301516136c260208601826131a2565b5060408301516136d560408601826131a2565b50606083015184820360608601526136ed8282613211565b9150506080830151613702608086018261326f565b5060a083015184820360a086015261371a82826132cf565b9150508091505092915050565b600060208201905081810360008301526137418184613697565b905092915050565b60006020828403121561375f5761375e612d42565b5b600061376d84828501612f8f565b91505092915050565b61377f81612eb9565b82525050565b600060208201905061379a6000830184613776565b92915050565b60006137ab82613063565b9050919050565b6137bb816137a0565b82525050565b60006020820190506137d660008301846137b2565b92915050565b6137e581612dd1565b81146137f057600080fd5b50565b600081359050613802816137dc565b92915050565b6000806040838503121561381f5761381e612d42565b5b600061382d85828601612f8f565b925050602061383e858286016137f3565b9150509250929050565b600067ffffffffffffffff821115613863576138626134b6565b5b61386c82612e4d565b9050602081019050919050565b600061388c61388784613848565b613516565b9050828152602081018484840111156138a8576138a76134b1565b5b6138b3848285613562565b509392505050565b600082601f8301126138d0576138cf6130b1565b5b81356138e0848260208601613879565b91505092915050565b6000806000806080858703121561390357613902612d42565b5b600061391187828801612f8f565b945050602061392287828801612f8f565b935050604061393387828801612eda565b925050606085013567ffffffffffffffff81111561395457613953612d47565b5b613960878288016138bb565b91505092959194509250565b600061397782612f3c565b9050919050565b6139878161396c565b811461399257600080fd5b50565b6000813590506139a48161397e565b92915050565b60006139b582612f3c565b9050919050565b6139c5816139aa565b81146139d057600080fd5b50565b6000813590506139e2816139bc565b92915050565b60006139f382612f3c565b9050919050565b613a03816139e8565b8114613a0e57600080fd5b50565b600081359050613a20816139fa565b92915050565b600080600060608486031215613a3f57613a3e612d42565b5b6000613a4d86828701613995565b9350506020613a5e868287016139d3565b9250506040613a6f86828701613a11565b9150509250925092565b60008060408385031215613a9057613a8f612d42565b5b6000613a9e85828601612f8f565b9250506020613aaf85828601612f8f565b9150509250929050565b60008060408385031215613ad057613acf612d42565b5b6000613ade85828601612eda565b9250506020613aef85828601612eda565b9150509250929050565b7f4e487b7100000000000000000000000000000000000000000000000000000000600052602260045260246000fd5b60006002820490506001821680613b4057607f821691505b602082108103613b5357613b52613af9565b5b50919050565b7f4552433732313a20617070726f76616c20746f2063757272656e74206f776e6560008201527f7200000000000000000000000000000000000000000000000000000000000000602082015250565b6000613bb5602183612e12565b9150613bc082613b59565b604082019050919050565b60006020820190508181036000830152613be481613ba8565b9050919050565b7f4552433732313a20617070726f76652063616c6c6572206973206e6f7420746f60008201527f6b656e206f776e6572206f7220617070726f76656420666f7220616c6c000000602082015250565b6000613c47603d83612e12565b9150613c5282613beb565b604082019050919050565b60006020820190508181036000830152613c7681613c3a565b9050919050565b7f4552433732313a2063616c6c6572206973206e6f7420746f6b656e206f776e6560008201527f72206f7220617070726f76656400000000000000000000000000000000000000602082015250565b6000613cd9602d83612e12565b9150613ce482613c7d565b604082019050919050565b60006020820190508181036000830152613d0881613ccc565b9050919050565b7f4e487b7100000000000000000000000000000000000000000000000000000000600052603260045260246000fd5b6000604082019050613d536000830185612f4e565b613d606020830184613776565b9392505050565b600081519050613d76816137dc565b92915050565b600060208284031215613d9257613d91612d42565b5b6000613da084828501613d67565b91505092915050565b7f4e487b7100000000000000000000000000000000000000000000000000000000600052601160045260246000fd5b6000613de382612eb9565b91507fffffffffffffffffffffffffffffffffffffffffffffffffffffffffffffffff8203613e1557613e14613da9565b5b600182019050919050565b6000613e2b82612eb9565b9150613e3683612eb9565b9250828201905080821115613e4e57613e4d613da9565b5b92915050565b60008190508160005260206000209050919050565b60006020601f8301049050919050565b600082821b905092915050565b600060088302613eb67fffffffffffffffffffffffffffffffffffffffffffffffffffffffffffffffff82613e79565b613ec08683613e79565b95508019841693508086168417925050509392505050565b6000613ef3613eee613ee984612eb9565b613037565b612eb9565b9050919050565b6000819050919050565b613f0d83613ed8565b613f21613f1982613efa565b848454613e86565b825550505050565b600090565b613f36613f29565b613f41818484613f04565b505050565b5b81811015613f6557613f5a600082613f2e565b600181019050613f47565b5050565b601f821115613faa57613f7b81613e54565b613f8484613e69565b81016020851015613f93578190505b613fa7613f9f85613e69565b830182613f46565b50505b505050565b600082821c905092915050565b6000613fcd60001984600802613faf565b1980831691505092915050565b6000613fe68383613fbc565b9150826002028217905092915050565b613fff82612e07565b67ffffffffffffffff811115614018576140176134b6565b5b6140228254613b28565b61402d828285613f69565b600060209050601f831160018114614060576000841561404e578287015190505b6140588582613fda565b8655506140c0565b601f19841661406e86613e54565b60005b8281101561409657848901518255600182019150602085019450602081019050614071565b868310156140b357848901516140af601f891682613fbc565b8355505b6001600288020188555050505b505050505050565b7f4552433732313a20696e76616c696420746f6b656e2049440000000000000000600082015250565b60006140fe601883612e12565b9150614109826140c8565b602082019050919050565b6000602082019050818103600083015261412d816140f1565b9050919050565b6000813561414181612ec3565b80915050919050565b60008160001b9050919050565b60007fffffffffffffffffffffffffffffffffffffffffffffffffffffffffffffffff6141838461414a565b9350801983169250808416831791505092915050565b6141a282613ed8565b6141b56141ae82613efa565b8354614157565b8255505050565b600080fd5b600080fd5b600080fd5b600080833560016020038436030381126141e8576141e76141bc565b5b80840192508235915067ffffffffffffffff82111561420a576142096141c1565b5b602083019250602082023603831315614226576142256141c6565b5b509250929050565b600081549050919050565b600061424482612eb9565b915061424f83612eb9565b925082820261425d81612eb9565b9150828204841483151761427457614273613da9565b5b5092915050565b60008190506001806001038301049050919050565b60008190508160005260206000209050919050565b5b818110156142c4576142b9600082613f2e565b6001810190506142a6565b5050565b6142f87fffffffffffffffffffffffffffffffffffffffffffffffffffffffffffffffff83602003600802613faf565b815481168255505050565b8183101561433c576143148261427b565b61431d8461427b565b61432683614290565b81810183820161433681836142a5565b50505050505b505050565b6801000000000000000082111561435b5761435a6134b6565b5b6143648161422e565b828255614372838284614303565b505050565b600082905092915050565b6000813561438f81612f78565b80915050919050565b6000819050919050565b6000819050919050565b6143b68383614377565b67ffffffffffffffff8111156143cf576143ce6134b6565b5b6143d98183614341565b6143e283614398565b6143eb83614290565b6001830460005b8181101561442a57600061440585614382565b61440e816143a2565b80925060208701965050508082850155506001810190506143f2565b5050505050505050565b61443f8383836143ac565b505050565b60008135614451816137dc565b80915050919050565b600060ff6144678461414a565b9350801983169250808416831791505092915050565b600061448882612dd1565b9050919050565b6000819050919050565b6144a28261447d565b6144b56144ae8261448f565b835461445a565b8255505050565b600080833560016020038436030381126144d9576144d86141bc565b5b80840192508235915067ffffffffffffffff8211156144fb576144fa6141c1565b5b602083019250602082023603831315614517576145166141c6565b5b509250929050565b600081549050919050565b6000819050602060016020038301049050919050565b60008190508160005260206000209050919050565b5b8181101561457457614569600082613f2e565b600181019050614556565b5050565b818310156145d0576145898261452a565b6145928461452a565b61459b83614540565b8181018382016001602089060260008111156145bf576145be81600185036142c8565b5b6145c98284614555565b5050505050505b505050565b680100000000000000008211156145ef576145ee6134b6565b5b6145f88161451f565b828255614606838284614578565b505050565b600082905092915050565b6000819050919050565b60006008830261463160ff82613e79565b61463b8683613e79565b95508019841693508086168417925050509392505050565b61465d838361460b565b67ffffffffffffffff811115614676576146756134b6565b5b61468081836145d5565b61468983614616565b61469283614540565b6020830460005b818110156146f5576000805b60208110156146e3576146b786614444565b6146c08161448f565b6146ce818460010286614620565b935060208801975050506001810190506146a5565b50808285015550600181019050614699565b50602081028403600081111561474e576000805b828110156147465761471a86614444565b6147238161448f565b614731818460010286614620565b93506020880197505050600181019050614709565b508083850155505b5050505050505050565b614763838383614653565b505050565b60008101600083018061477a81614134565b90506147868184614199565b50505060018101602083018061479b81614134565b90506147a78184614199565b5050506002810160408301806147bc81614134565b90506147c88184614199565b50505060038101606083016147dd81856141cb565b6147e8818386614434565b505050506004810160808301806147fe81614444565b905061480a8184614499565b5050506005810160a0830161481f81856144bc565b61482a818386614758565b505050505050565b61483c8282614768565b5050565b60006080820190506148556000830187613776565b6148626020830186613776565b61486f6040830185613776565b61487c6060830184613776565b95945050505050565b7f4552433732313a2061646472657373207a65726f206973206e6f74206120766160008201527f6c6964206f776e65720000000000000000000000000000000000000000000000602082015250565b60006148e1602983612e12565b91506148ec82614885565b604082019050919050565b60006020820190508181036000830152614910816148d4565b9050919050565b7f496e697469616c697a61626c653a20636f6e747261637420697320616c72656160008201527f647920696e697469616c697a6564000000000000000000000000000000000000602082015250565b6000614973602e83612e12565b915061497e82614917565b604082019050919050565b600060208201905081810360008301526149a281614966565b9050919050565b6000819050919050565b600060ff82169050919050565b60006149db6149d66149d1846149a9565b613037565b6149b3565b9050919050565b6149eb816149c0565b82525050565b6000602082019050614a0660008301846149e2565b92915050565b600081905092915050565b6000614a2282612e07565b614a2c8185614a0c565b9350614a3c818560208601612e23565b80840191505092915050565b6000614a548285614a17565b9150614a608284614a17565b91508190509392505050565b7f4f776e61626c653a206e6577206f776e657220697320746865207a65726f206160008201527f6464726573730000000000000000000000000000000000000000000000000000602082015250565b6000614ac8602683612e12565b9150614ad382614a6c565b604082019050919050565b60006020820190508181036000830152614af781614abb565b9050919050565b600081519050614b0d81612f78565b92915050565b600060208284031215614b2957614b28612d42565b5b6000614b3784828501614afe565b91505092915050565b600080fd5b600081519050614b5481612ec3565b92915050565b600060408284031215614b7057614b6f614b40565b5b614b7a6040613516565b90506000614b8a84828501614afe565b6000830152506020614b9e84828501614b45565b60208301525092915050565b600060408284031215614bc057614bbf612d42565b5b6000614bce84828501614b5a565b91505092915050565b6000606082019050614bec6000830186612f4e565b614bf96020830185612f4e565b614c066040830184613776565b949350505050565b7f4552433732313a207472616e736665722066726f6d20696e636f72726563742060008201527f6f776e6572000000000000000000000000000000000000000000000000000000602082015250565b6000614c6a602583612e12565b9150614c7582614c0e565b604082019050919050565b60006020820190508181036000830152614c9981614c5d565b9050919050565b7f4552433732313a207472616e7366657220746f20746865207a65726f2061646460008201527f7265737300000000000000000000000000000000000000000000000000000000602082015250565b6000614cfc602483612e12565b9150614d0782614ca0565b604082019050919050565b60006020820190508181036000830152614d2b81614cef565b9050919050565b7f4f776e61626c653a2063616c6c6572206973206e6f7420746865206f776e6572600082015250565b6000614d68602083612e12565b9150614d7382614d32565b602082019050919050565b60006020820190508181036000830152614d9781614d5b565b9050919050565b7f4552433732313a206d696e7420746f20746865207a65726f2061646472657373600082015250565b6000614dd4602083612e12565b9150614ddf82614d9e565b602082019050919050565b60006020820190508181036000830152614e0381614dc7565b9050919050565b7f4552433732313a20746f6b656e20616c7265616479206d696e74656400000000600082015250565b6000614e40601c83612e12565b9150614e4b82614e0a565b602082019050919050565b60006020820190508181036000830152614e6f81614e33565b9050919050565b7f4552433732313a20617070726f766520746f2063616c6c657200000000000000600082015250565b6000614eac601983612e12565b9150614eb782614e76565b602082019050919050565b60006020820190508181036000830152614edb81614e9f565b9050919050565b7f4552433732313a207472616e7366657220746f206e6f6e20455243373231526560008201527f63656976657220696d706c656d656e7465720000000000000000000000000000602082015250565b6000614f3e603283612e12565b9150614f4982614ee2565b604082019050919050565b60006020820190508181036000830152614f6d81614f31565b9050919050565b7f496e697469616c697a61626c653a20636f6e7472616374206973206e6f74206960008201527f6e697469616c697a696e67000000000000000000000000000000000000000000602082015250565b6000614fd0602b83612e12565b9150614fdb82614f74565b604082019050919050565b60006020820190508181036000830152614fff81614fc3565b9050919050565b7f4e487b7100000000000000000000000000000000000000000000000000000000600052601260045260246000fd5b600081519050919050565b600082825260208201905092915050565b600061505c82615035565b6150668185615040565b9350615076818560208601612e23565b61507f81612e4d565b840191505092915050565b600060808201905061509f6000830187612f4e565b6150ac6020830186612f4e565b6150b96040830185613776565b81810360608301526150cb8184615051565b905095945050505050565b6000815190506150e581612d78565b92915050565b60006020828403121561510157615100612d42565b5b600061510f848285016150d6565b9150509291505056fea2646970667358221220628bd30b1fd578c3810e0308cfc35c80ecd5dd31691ec09f22611e0a615a3b7264736f6c63430008130033",
  "linkReferences": {},
  "deployedLinkReferences": {}
}