{
  "_format": "hh-sol-artifact-1",
  "contractName": "AroundGuestMembership",
  "sourceName": "contracts/AroundGuestMembership.sol",
  "abi": [
    {
      "inputs": [],
      "name": "AlreadyMember",
      "type": "error"
    },
    {
      "inputs": [],
      "name": "BurnableSoulbound",
      "type": "error"
    },
    {
      "inputs": [],
      "name": "NotWhitelisted",
      "type": "error"
    },
    {
      "anonymous": false,
      "inputs": [
        {
          "indexed": true,
          "internalType": "address",
          "name": "owner",
          "type": "address"
        },
        {
          "indexed": true,
          "internalType": "address",
          "name": "approved",
          "type": "address"
        },
        {
          "indexed": true,
          "internalType": "uint256",
          "name": "tokenId",
          "type": "uint256"
        }
      ],
      "name": "Approval",
      "type": "event"
    },
    {
      "anonymous": false,
      "inputs": [
        {
          "indexed": true,
          "internalType": "address",
          "name": "owner",
          "type": "address"
        },
        {
          "indexed": true,
          "internalType": "address",
          "name": "operator",
          "type": "address"
        },
        {
          "indexed": false,
          "internalType": "bool",
          "name": "approved",
          "type": "bool"
        }
      ],
      "name": "ApprovalForAll",
      "type": "event"
    },
    {
      "anonymous": false,
      "inputs": [
        {
          "indexed": false,
          "internalType": "uint8",
          "name": "version",
          "type": "uint8"
        }
      ],
      "name": "Initialized",
      "type": "event"
    },
    {
      "anonymous": false,
      "inputs": [
        {
          "indexed": true,
          "internalType": "address",
          "name": "minter",
          "type": "address"
        },
        {
          "indexed": true,
          "internalType": "address",
          "name": "tokenbound",
          "type": "address"
        },
        {
          "indexed": true,
          "internalType": "uint256",
          "name": "tokenId",
          "type": "uint256"
        }
      ],
      "name": "MembershipMinted",
      "type": "event"
    },
    {
      "anonymous": false,
      "inputs": [
        {
          "indexed": true,
          "internalType": "address",
          "name": "previousOwner",
          "type": "address"
        },
        {
          "indexed": true,
          "internalType": "address",
          "name": "newOwner",
          "type": "address"
        }
      ],
      "name": "OwnershipTransferred",
      "type": "event"
    },
    {
      "anonymous": false,
      "inputs": [
        {
          "indexed": true,
          "internalType": "address",
          "name": "from",
          "type": "address"
        },
        {
          "indexed": true,
          "internalType": "address",
          "name": "to",
          "type": "address"
        },
        {
          "indexed": true,
          "internalType": "uint256",
          "name": "tokenId",
          "type": "uint256"
        }
      ],
      "name": "Transfer",
      "type": "event"
    },
    {
      "inputs": [
        {
          "internalType": "address",
          "name": "to",
          "type": "address"
        },
        {
          "internalType": "uint256",
          "name": "tokenId",
          "type": "uint256"
        }
      ],
      "name": "approve",
      "outputs": [],
      "stateMutability": "nonpayable",
      "type": "function"
    },
    {
      "inputs": [
        {
          "internalType": "address",
          "name": "owner",
          "type": "address"
        }
      ],
      "name": "balanceOf",
      "outputs": [
        {
          "internalType": "uint256",
          "name": "",
          "type": "uint256"
        }
      ],
      "stateMutability": "view",
      "type": "function"
    },
    {
      "inputs": [
        {
          "internalType": "uint256",
          "name": "tokenId",
          "type": "uint256"
        }
      ],
      "name": "getApproved",
      "outputs": [
        {
          "internalType": "address",
          "name": "",
          "type": "address"
        }
      ],
      "stateMutability": "view",
      "type": "function"
    },
    {
      "inputs": [
        {
          "internalType": "uint256",
          "name": "tokenId",
          "type": "uint256"
        }
      ],
      "name": "getMembership",
      "outputs": [
        {
          "components": [
            {
              "internalType": "address",
              "name": "tokenbound",
              "type": "address"
            },
            {
              "internalType": "uint256",
              "name": "expiryTimestamp",
              "type": "uint256"
            }
          ],
          "internalType": "struct AroundGuestMembership.Membership",
          "name": "",
          "type": "tuple"
        }
      ],
      "stateMutability": "view",
      "type": "function"
    },
    {
      "inputs": [
        {
          "internalType": "address",
          "name": "user",
          "type": "address"
        }
      ],
      "name": "getWhitelisted",
      "outputs": [
        {
          "internalType": "bool",
          "name": "",
          "type": "bool"
        }
      ],
      "stateMutability": "view",
      "type": "function"
    },
    {
      "inputs": [
        {
          "internalType": "contract IERC6551Registry",
          "name": "_tokenboundRegistry",
          "type": "address"
        },
        {
          "internalType": "address",
          "name": "_tokenboundImplementation",
          "type": "address"
        }
      ],
      "name": "initialize",
      "outputs": [],
      "stateMutability": "nonpayable",
      "type": "function"
    },
    {
      "inputs": [
        {
          "internalType": "address",
          "name": "owner",
          "type": "address"
        },
        {
          "internalType": "address",
          "name": "operator",
          "type": "address"
        }
      ],
      "name": "isApprovedForAll",
      "outputs": [
        {
          "internalType": "bool",
          "name": "",
          "type": "bool"
        }
      ],
      "stateMutability": "view",
      "type": "function"
    },
    {
      "inputs": [],
      "name": "mintMembership",
      "outputs": [],
      "stateMutability": "nonpayable",
      "type": "function"
    },
    {
      "inputs": [],
      "name": "name",
      "outputs": [
        {
          "internalType": "string",
          "name": "",
          "type": "string"
        }
      ],
      "stateMutability": "view",
      "type": "function"
    },
    {
      "inputs": [],
      "name": "owner",
      "outputs": [
        {
          "internalType": "address",
          "name": "",
          "type": "address"
        }
      ],
      "stateMutability": "view",
      "type": "function"
    },
    {
      "inputs": [
        {
          "internalType": "uint256",
          "name": "tokenId",
          "type": "uint256"
        }
      ],
      "name": "ownerOf",
      "outputs": [
        {
          "internalType": "address",
          "name": "",
          "type": "address"
        }
      ],
      "stateMutability": "view",
      "type": "function"
    },
    {
      "inputs": [],
      "name": "renounceOwnership",
      "outputs": [],
      "stateMutability": "nonpayable",
      "type": "function"
    },
    {
      "inputs": [
        {
          "internalType": "address",
          "name": "from",
          "type": "address"
        },
        {
          "internalType": "address",
          "name": "to",
          "type": "address"
        },
        {
          "internalType": "uint256",
          "name": "tokenId",
          "type": "uint256"
        }
      ],
      "name": "safeTransferFrom",
      "outputs": [],
      "stateMutability": "nonpayable",
      "type": "function"
    },
    {
      "inputs": [
        {
          "internalType": "address",
          "name": "from",
          "type": "address"
        },
        {
          "internalType": "address",
          "name": "to",
          "type": "address"
        },
        {
          "internalType": "uint256",
          "name": "tokenId",
          "type": "uint256"
        },
        {
          "internalType": "bytes",
          "name": "data",
          "type": "bytes"
        }
      ],
      "name": "safeTransferFrom",
      "outputs": [],
      "stateMutability": "nonpayable",
      "type": "function"
    },
    {
      "inputs": [
        {
          "internalType": "address",
          "name": "operator",
          "type": "address"
        },
        {
          "internalType": "bool",
          "name": "approved",
          "type": "bool"
        }
      ],
      "name": "setApprovalForAll",
      "outputs": [],
      "stateMutability": "nonpayable",
      "type": "function"
    },
    {
      "inputs": [
        {
          "internalType": "string",
          "name": "_uri",
          "type": "string"
        }
      ],
      "name": "setBaseURI",
      "outputs": [],
      "stateMutability": "nonpayable",
      "type": "function"
    },
    {
      "inputs": [
        {
          "internalType": "address[]",
          "name": "_whitelist",
          "type": "address[]"
        },
        {
          "internalType": "bool[]",
          "name": "_status",
          "type": "bool[]"
        }
      ],
      "name": "setWhitelist",
      "outputs": [],
      "stateMutability": "nonpayable",
      "type": "function"
    },
    {
      "inputs": [
        {
          "internalType": "bytes4",
          "name": "interfaceId",
          "type": "bytes4"
        }
      ],
      "name": "supportsInterface",
      "outputs": [
        {
          "internalType": "bool",
          "name": "",
          "type": "bool"
        }
      ],
      "stateMutability": "view",
      "type": "function"
    },
    {
      "inputs": [],
      "name": "symbol",
      "outputs": [
        {
          "internalType": "string",
          "name": "",
          "type": "string"
        }
      ],
      "stateMutability": "view",
      "type": "function"
    },
    {
      "inputs": [
        {
          "internalType": "uint256",
          "name": "tokenId",
          "type": "uint256"
        }
      ],
      "name": "tokenURI",
      "outputs": [
        {
          "internalType": "string",
          "name": "",
          "type": "string"
        }
      ],
      "stateMutability": "view",
      "type": "function"
    },
    {
      "inputs": [],
      "name": "tokenboundImplementation",
      "outputs": [
        {
          "internalType": "address",
          "name": "",
          "type": "address"
        }
      ],
      "stateMutability": "view",
      "type": "function"
    },
    {
      "inputs": [],
      "name": "tokenboundRegistry",
      "outputs": [
        {
          "internalType": "contract IERC6551Registry",
          "name": "",
          "type": "address"
        }
      ],
      "stateMutability": "view",
      "type": "function"
    },
    {
      "inputs": [
        {
          "internalType": "address",
          "name": "from",
          "type": "address"
        },
        {
          "internalType": "address",
          "name": "to",
          "type": "address"
        },
        {
          "internalType": "uint256",
          "name": "tokenId",
          "type": "uint256"
        }
      ],
      "name": "transferFrom",
      "outputs": [],
      "stateMutability": "nonpayable",
      "type": "function"
    },
    {
      "inputs": [
        {
          "internalType": "address",
          "name": "newOwner",
          "type": "address"
        }
      ],
      "name": "transferOwnership",
      "outputs": [],
      "stateMutability": "nonpayable",
      "type": "function"
    }
  ],
  "bytecode": "0x608060405234801561001057600080fd5b50613c2c806100206000396000f3fe608060405234801561001057600080fd5b50600436106101585760003560e01c806370a08231116100c3578063a22cb4651161007c578063a22cb465146103b1578063b88d4fde146103cd578063c443a5d2146103e9578063c87b56dd14610407578063e985e9c514610437578063f2fde38b1461046757610158565b806370a08231146103135780637123190814610343578063715018a61461034d57806374854ec1146103575780638da5cb5b1461037557806395d89b411461039357610158565b80633b99adf7116101155780633b99adf7146102435780633f18064a1461025f57806342842e0e1461028f578063485cc955146102ab57806355f804b3146102c75780636352211e146102e357610158565b806301ffc9a71461015d57806306fdde031461018d578063081812fc146101ab578063095ea7b3146101db57806323b872dd146101f757806338fbf2c614610213575b600080fd5b6101776004803603810190610172919061249e565b610483565b60405161018491906124e6565b60405180910390f35b610195610565565b6040516101a29190612591565b60405180910390f35b6101c560048036038101906101c091906125e9565b6105f7565b6040516101d29190612657565b60405180910390f35b6101f560048036038101906101f0919061269e565b61063d565b005b610211600480360381019061020c91906126de565b610754565b005b61022d600480360381019061022891906125e9565b6107b4565b60405161023a919061277e565b60405180910390f35b61025d60048036038101906102589190612854565b610841565b005b610279600480360381019061027491906128d5565b610916565b60405161028691906124e6565b60405180910390f35b6102a960048036038101906102a491906126de565b61096c565b005b6102c560048036038101906102c09190612940565b61098c565b005b6102e160048036038101906102dc9190612ab0565b610bc2565b005b6102fd60048036038101906102f891906125e9565b610bdd565b60405161030a9190612657565b60405180910390f35b61032d600480360381019061032891906128d5565b610c63565b60405161033a9190612b08565b60405180910390f35b61034b610d1a565b005b610355610fd9565b005b61035f610fed565b60405161036c9190612657565b60405180910390f35b61037d611013565b60405161038a9190612657565b60405180910390f35b61039b61103d565b6040516103a89190612591565b60405180910390f35b6103cb60048036038101906103c69190612b4f565b6110cf565b005b6103e760048036038101906103e29190612c30565b6110e5565b005b6103f1611147565b6040516103fe9190612d12565b60405180910390f35b610421600480360381019061041c91906125e9565b61116d565b60405161042e9190612591565b60405180910390f35b610451600480360381019061044c9190612d2d565b6111d5565b60405161045e91906124e6565b60405180910390f35b610481600480360381019061047c91906128d5565b611269565b005b60007f80ac58cd000000000000000000000000000000000000000000000000000000007bffffffffffffffffffffffffffffffffffffffffffffffffffffffff1916827bffffffffffffffffffffffffffffffffffffffffffffffffffffffff1916148061054e57507f5b5e139f000000000000000000000000000000000000000000000000000000007bffffffffffffffffffffffffffffffffffffffffffffffffffffffff1916827bffffffffffffffffffffffffffffffffffffffffffffffffffffffff1916145b8061055e575061055d826112ec565b5b9050919050565b60606065805461057490612d9c565b80601f01602080910402602001604051908101604052809291908181526020018280546105a090612d9c565b80156105ed5780601f106105c2576101008083540402835291602001916105ed565b820191906000526020600020905b8154815290600101906020018083116105d057829003601f168201915b5050505050905090565b600061060282611356565b6069600083815260200190815260200160002060009054906101000a900473ffffffffffffffffffffffffffffffffffffffff169050919050565b600061064882610bdd565b90508073ffffffffffffffffffffffffffffffffffffffff168373ffffffffffffffffffffffffffffffffffffffff16036106b8576040517f08c379a00000000000000000000000000000000000000000000000000000000081526004016106af90612e3f565b60405180910390fd5b8073ffffffffffffffffffffffffffffffffffffffff166106d76113a1565b73ffffffffffffffffffffffffffffffffffffffff1614806107065750610705816107006113a1565b6111d5565b5b610745576040517f08c379a000000000000000000000000000000000000000000000000000000000815260040161073c90612ed1565b60405180910390fd5b61074f83836113a9565b505050565b61076561075f6113a1565b82611462565b6107a4576040517f08c379a000000000000000000000000000000000000000000000000000000000815260040161079b90612f63565b60405180910390fd5b6107af8383836114f7565b505050565b6107bc612402565b60cd60008381526020019081526020016000206040518060400160405290816000820160009054906101000a900473ffffffffffffffffffffffffffffffffffffffff1673ffffffffffffffffffffffffffffffffffffffff1673ffffffffffffffffffffffffffffffffffffffff1681526020016001820154815250509050919050565b6108496117f0565b60005b8484905081101561090f5782828281811061086a57610869612f83565b5b905060200201602081019061087f9190612fb2565b60ce600087878581811061089657610895612f83565b5b90506020020160208101906108ab91906128d5565b73ffffffffffffffffffffffffffffffffffffffff1673ffffffffffffffffffffffffffffffffffffffff16815260200190815260200160002060006101000a81548160ff02191690831515021790555080806109079061300e565b91505061084c565b5050505050565b600060ce60008373ffffffffffffffffffffffffffffffffffffffff1673ffffffffffffffffffffffffffffffffffffffff16815260200190815260200160002060009054906101000a900460ff169050919050565b610987838383604051806020016040528060008152506110e5565b505050565b60008060019054906101000a900460ff161590508080156109bd5750600160008054906101000a900460ff1660ff16105b806109ea57506109cc3061186e565b1580156109e95750600160008054906101000a900460ff1660ff16145b5b610a29576040517f08c379a0000000000000000000000000000000000000000000000000000000008152600401610a20906130c8565b60405180910390fd5b60016000806101000a81548160ff021916908360ff1602179055508015610a66576001600060016101000a81548160ff0219169083151502179055505b610ada6040518060400160405280601181526020017f41726f756e64204d656d626572736869700000000000000000000000000000008152506040518060400160405280600a81526020017f41524f554e444d454d4200000000000000000000000000000000000000000000815250611891565b610ae26118ee565b8260cb60006101000a81548173ffffffffffffffffffffffffffffffffffffffff021916908373ffffffffffffffffffffffffffffffffffffffff1602179055508160cc60006101000a81548173ffffffffffffffffffffffffffffffffffffffff021916908373ffffffffffffffffffffffffffffffffffffffff1602179055508015610bbd5760008060016101000a81548160ff0219169083151502179055507f7f26b83ff96e1f2b6a682f133852f6798a09c465da95921460cefb38474024986001604051610bb49190613130565b60405180910390a15b505050565b610bca6117f0565b8060ca9081610bd991906132ed565b5050565b600080610be983611947565b9050600073ffffffffffffffffffffffffffffffffffffffff168173ffffffffffffffffffffffffffffffffffffffff1603610c5a576040517f08c379a0000000000000000000000000000000000000000000000000000000008152600401610c519061340b565b60405180910390fd5b80915050919050565b60008073ffffffffffffffffffffffffffffffffffffffff168273ffffffffffffffffffffffffffffffffffffffff1603610cd3576040517f08c379a0000000000000000000000000000000000000000000000000000000008152600401610cca9061349d565b60405180910390fd5b606860008373ffffffffffffffffffffffffffffffffffffffff1673ffffffffffffffffffffffffffffffffffffffff168152602001908152602001600020549050919050565b6000610d2533610c63565b1115610d5d576040517f810074be00000000000000000000000000000000000000000000000000000000815260040160405180910390fd5b60ce60003373ffffffffffffffffffffffffffffffffffffffff1673ffffffffffffffffffffffffffffffffffffffff16815260200190815260200160002060009054906101000a900460ff16610de0576040517f584a793800000000000000000000000000000000000000000000000000000000815260040160405180910390fd5b60c96000815480929190610df39061300e565b9190505550610e043360c954611984565b600060cb60009054906101000a900473ffffffffffffffffffffffffffffffffffffffff1673ffffffffffffffffffffffffffffffffffffffff1663da7323b360cc60009054906101000a900473ffffffffffffffffffffffffffffffffffffffff16620138813060c95460006040518663ffffffff1660e01b8152600401610e9195949392919061352f565b6020604051808303816000875af1158015610eb0573d6000803e3d6000fd5b505050506040513d601f19601f82011682018060405250810190610ed491906135aa565b905060405180604001604052808273ffffffffffffffffffffffffffffffffffffffff1681526020016301e1338042610f0d91906135d7565b81525060cd600060c954815260200190815260200160002060008201518160000160006101000a81548173ffffffffffffffffffffffffffffffffffffffff021916908373ffffffffffffffffffffffffffffffffffffffff1602179055506020820151816001015590505060c9548173ffffffffffffffffffffffffffffffffffffffff163373ffffffffffffffffffffffffffffffffffffffff167f98968292e2048513dccdcaaff0b0b0f3aae3b58120170f9039a5dd1e32d39d1e60405160405180910390a450565b610fe16117f0565b610feb6000611ba1565b565b60cc60009054906101000a900473ffffffffffffffffffffffffffffffffffffffff1681565b6000609760009054906101000a900473ffffffffffffffffffffffffffffffffffffffff16905090565b60606066805461104c90612d9c565b80601f016020809104026020016040519081016040528092919081815260200182805461107890612d9c565b80156110c55780601f1061109a576101008083540402835291602001916110c5565b820191906000526020600020905b8154815290600101906020018083116110a857829003601f168201915b5050505050905090565b6110e16110da6113a1565b8383611c67565b5050565b6110f66110f06113a1565b83611462565b611135576040517f08c379a000000000000000000000000000000000000000000000000000000000815260040161112c90612f63565b60405180910390fd5b61114184848484611dd3565b50505050565b60cb60009054906101000a900473ffffffffffffffffffffffffffffffffffffffff1681565b606061117882611356565b6000611182611e2f565b905060008151116111a257604051806020016040528060008152506111cd565b806111ac84611ec1565b6040516020016111bd929190613647565b6040516020818303038152906040525b915050919050565b6000606a60008473ffffffffffffffffffffffffffffffffffffffff1673ffffffffffffffffffffffffffffffffffffffff16815260200190815260200160002060008373ffffffffffffffffffffffffffffffffffffffff1673ffffffffffffffffffffffffffffffffffffffff16815260200190815260200160002060009054906101000a900460ff16905092915050565b6112716117f0565b600073ffffffffffffffffffffffffffffffffffffffff168173ffffffffffffffffffffffffffffffffffffffff16036112e0576040517f08c379a00000000000000000000000000000000000000000000000000000000081526004016112d7906136dd565b60405180910390fd5b6112e981611ba1565b50565b60007f01ffc9a7000000000000000000000000000000000000000000000000000000007bffffffffffffffffffffffffffffffffffffffffffffffffffffffff1916827bffffffffffffffffffffffffffffffffffffffffffffffffffffffff1916149050919050565b61135f81611f8f565b61139e576040517f08c379a00000000000000000000000000000000000000000000000000000000081526004016113959061340b565b60405180910390fd5b50565b600033905090565b816069600083815260200190815260200160002060006101000a81548173ffffffffffffffffffffffffffffffffffffffff021916908373ffffffffffffffffffffffffffffffffffffffff160217905550808273ffffffffffffffffffffffffffffffffffffffff1661141c83610bdd565b73ffffffffffffffffffffffffffffffffffffffff167f8c5be1e5ebec7d5bd14f71427d1e84f3dd0314c0f7b2291e5b200ac8c7c3b92560405160405180910390a45050565b60008061146e83610bdd565b90508073ffffffffffffffffffffffffffffffffffffffff168473ffffffffffffffffffffffffffffffffffffffff1614806114b057506114af81856111d5565b5b806114ee57508373ffffffffffffffffffffffffffffffffffffffff166114d6846105f7565b73ffffffffffffffffffffffffffffffffffffffff16145b91505092915050565b8273ffffffffffffffffffffffffffffffffffffffff1661151782610bdd565b73ffffffffffffffffffffffffffffffffffffffff161461156d576040517f08c379a00000000000000000000000000000000000000000000000000000000081526004016115649061376f565b60405180910390fd5b600073ffffffffffffffffffffffffffffffffffffffff168273ffffffffffffffffffffffffffffffffffffffff16036115dc576040517f08c379a00000000000000000000000000000000000000000000000000000000081526004016115d390613801565b60405180910390fd5b6115e98383836001611fd0565b8273ffffffffffffffffffffffffffffffffffffffff1661160982610bdd565b73ffffffffffffffffffffffffffffffffffffffff161461165f576040517f08c379a00000000000000000000000000000000000000000000000000000000081526004016116569061376f565b60405180910390fd5b6069600082815260200190815260200160002060006101000a81549073ffffffffffffffffffffffffffffffffffffffff02191690556001606860008573ffffffffffffffffffffffffffffffffffffffff1673ffffffffffffffffffffffffffffffffffffffff168152602001908152602001600020600082825403925050819055506001606860008473ffffffffffffffffffffffffffffffffffffffff1673ffffffffffffffffffffffffffffffffffffffff16815260200190815260200160002060008282540192505081905550816067600083815260200190815260200160002060006101000a81548173ffffffffffffffffffffffffffffffffffffffff021916908373ffffffffffffffffffffffffffffffffffffffff160217905550808273ffffffffffffffffffffffffffffffffffffffff168473ffffffffffffffffffffffffffffffffffffffff167fddf252ad1be2c89b69c2b068fc378daa952ba7f163c4a11628f55a4df523b3ef60405160405180910390a46117eb8383836001612048565b505050565b6117f86113a1565b73ffffffffffffffffffffffffffffffffffffffff16611816611013565b73ffffffffffffffffffffffffffffffffffffffff161461186c576040517f08c379a00000000000000000000000000000000000000000000000000000000081526004016118639061386d565b60405180910390fd5b565b6000808273ffffffffffffffffffffffffffffffffffffffff163b119050919050565b600060019054906101000a900460ff166118e0576040517f08c379a00000000000000000000000000000000000000000000000000000000081526004016118d7906138ff565b60405180910390fd5b6118ea828261204e565b5050565b600060019054906101000a900460ff1661193d576040517f08c379a0000000000000000000000000000000000000000000000000000000008152600401611934906138ff565b60405180910390fd5b6119456120c1565b565b60006067600083815260200190815260200160002060009054906101000a900473ffffffffffffffffffffffffffffffffffffffff169050919050565b600073ffffffffffffffffffffffffffffffffffffffff168273ffffffffffffffffffffffffffffffffffffffff16036119f3576040517f08c379a00000000000000000000000000000000000000000000000000000000081526004016119ea9061396b565b60405180910390fd5b6119fc81611f8f565b15611a3c576040517f08c379a0000000000000000000000000000000000000000000000000000000008152600401611a33906139d7565b60405180910390fd5b611a4a600083836001611fd0565b611a5381611f8f565b15611a93576040517f08c379a0000000000000000000000000000000000000000000000000000000008152600401611a8a906139d7565b60405180910390fd5b6001606860008473ffffffffffffffffffffffffffffffffffffffff1673ffffffffffffffffffffffffffffffffffffffff16815260200190815260200160002060008282540192505081905550816067600083815260200190815260200160002060006101000a81548173ffffffffffffffffffffffffffffffffffffffff021916908373ffffffffffffffffffffffffffffffffffffffff160217905550808273ffffffffffffffffffffffffffffffffffffffff16600073ffffffffffffffffffffffffffffffffffffffff167fddf252ad1be2c89b69c2b068fc378daa952ba7f163c4a11628f55a4df523b3ef60405160405180910390a4611b9d600083836001612048565b5050565b6000609760009054906101000a900473ffffffffffffffffffffffffffffffffffffffff16905081609760006101000a81548173ffffffffffffffffffffffffffffffffffffffff021916908373ffffffffffffffffffffffffffffffffffffffff1602179055508173ffffffffffffffffffffffffffffffffffffffff168173ffffffffffffffffffffffffffffffffffffffff167f8be0079c531659141344cd1fd0a4f28419497f9722a3daafe3b4186f6b6457e060405160405180910390a35050565b8173ffffffffffffffffffffffffffffffffffffffff168373ffffffffffffffffffffffffffffffffffffffff1603611cd5576040517f08c379a0000000000000000000000000000000000000000000000000000000008152600401611ccc90613a43565b60405180910390fd5b80606a60008573ffffffffffffffffffffffffffffffffffffffff1673ffffffffffffffffffffffffffffffffffffffff16815260200190815260200160002060008473ffffffffffffffffffffffffffffffffffffffff1673ffffffffffffffffffffffffffffffffffffffff16815260200190815260200160002060006101000a81548160ff0219169083151502179055508173ffffffffffffffffffffffffffffffffffffffff168373ffffffffffffffffffffffffffffffffffffffff167f17307eab39ab6107e8899845ad3d59bd9653f200f220920489ca2b5937696c3183604051611dc691906124e6565b60405180910390a3505050565b611dde8484846114f7565b611dea84848484612122565b611e29576040517f08c379a0000000000000000000000000000000000000000000000000000000008152600401611e2090613ad5565b60405180910390fd5b50505050565b606060ca8054611e3e90612d9c565b80601f0160208091040260200160405190810160405280929190818152602001828054611e6a90612d9c565b8015611eb75780601f10611e8c57610100808354040283529160200191611eb7565b820191906000526020600020905b815481529060010190602001808311611e9a57829003601f168201915b5050505050905090565b606060006001611ed0846122a9565b01905060008167ffffffffffffffff811115611eef57611eee612985565b5b6040519080825280601f01601f191660200182016040528015611f215781602001600182028036833780820191505090505b509050600082602001820190505b600115611f84578080600190039150507f3031323334353637383961626364656600000000000000000000000000000000600a86061a8153600a8581611f7857611f77613af5565b5b04945060008503611f2f575b819350505050919050565b60008073ffffffffffffffffffffffffffffffffffffffff16611fb183611947565b73ffffffffffffffffffffffffffffffffffffffff1614159050919050565b600073ffffffffffffffffffffffffffffffffffffffff168473ffffffffffffffffffffffffffffffffffffffff1614612036576040517f5fd0f9f500000000000000000000000000000000000000000000000000000000815260040160405180910390fd5b612042848484846123fc565b50505050565b50505050565b600060019054906101000a900460ff1661209d576040517f08c379a0000000000000000000000000000000000000000000000000000000008152600401612094906138ff565b60405180910390fd5b81606590816120ac91906132ed565b5080606690816120bc91906132ed565b505050565b600060019054906101000a900460ff16612110576040517f08c379a0000000000000000000000000000000000000000000000000000000008152600401612107906138ff565b60405180910390fd5b61212061211b6113a1565b611ba1565b565b60006121438473ffffffffffffffffffffffffffffffffffffffff1661186e565b1561229c578373ffffffffffffffffffffffffffffffffffffffff1663150b7a0261216c6113a1565b8786866040518563ffffffff1660e01b815260040161218e9493929190613b68565b6020604051808303816000875af19250505080156121ca57506040513d601f19601f820116820180604052508101906121c79190613bc9565b60015b61224c573d80600081146121fa576040519150601f19603f3d011682016040523d82523d6000602084013e6121ff565b606091505b506000815103612244576040517f08c379a000000000000000000000000000000000000000000000000000000000815260040161223b90613ad5565b60405180910390fd5b805181602001fd5b63150b7a0260e01b7bffffffffffffffffffffffffffffffffffffffffffffffffffffffff1916817bffffffffffffffffffffffffffffffffffffffffffffffffffffffff1916149150506122a1565b600190505b949350505050565b600080600090507a184f03e93ff9f4daa797ed6e38ed64bf6a1f0100000000000000008310612307577a184f03e93ff9f4daa797ed6e38ed64bf6a1f01000000000000000083816122fd576122fc613af5565b5b0492506040810190505b6d04ee2d6d415b85acef81000000008310612344576d04ee2d6d415b85acef8100000000838161233a57612339613af5565b5b0492506020810190505b662386f26fc10000831061237357662386f26fc10000838161236957612368613af5565b5b0492506010810190505b6305f5e100831061239c576305f5e100838161239257612391613af5565b5b0492506008810190505b61271083106123c15761271083816123b7576123b6613af5565b5b0492506004810190505b606483106123e457606483816123da576123d9613af5565b5b0492506002810190505b600a83106123f3576001810190505b80915050919050565b50505050565b6040518060400160405280600073ffffffffffffffffffffffffffffffffffffffff168152602001600081525090565b6000604051905090565b600080fd5b600080fd5b60007fffffffff0000000000000000000000000000000000000000000000000000000082169050919050565b61247b81612446565b811461248657600080fd5b50565b60008135905061249881612472565b92915050565b6000602082840312156124b4576124b361243c565b5b60006124c284828501612489565b91505092915050565b60008115159050919050565b6124e0816124cb565b82525050565b60006020820190506124fb60008301846124d7565b92915050565b600081519050919050565b600082825260208201905092915050565b60005b8381101561253b578082015181840152602081019050612520565b60008484015250505050565b6000601f19601f8301169050919050565b600061256382612501565b61256d818561250c565b935061257d81856020860161251d565b61258681612547565b840191505092915050565b600060208201905081810360008301526125ab8184612558565b905092915050565b6000819050919050565b6125c6816125b3565b81146125d157600080fd5b50565b6000813590506125e3816125bd565b92915050565b6000602082840312156125ff576125fe61243c565b5b600061260d848285016125d4565b91505092915050565b600073ffffffffffffffffffffffffffffffffffffffff82169050919050565b600061264182612616565b9050919050565b61265181612636565b82525050565b600060208201905061266c6000830184612648565b92915050565b61267b81612636565b811461268657600080fd5b50565b60008135905061269881612672565b92915050565b600080604083850312156126b5576126b461243c565b5b60006126c385828601612689565b92505060206126d4858286016125d4565b9150509250929050565b6000806000606084860312156126f7576126f661243c565b5b600061270586828701612689565b935050602061271686828701612689565b9250506040612727868287016125d4565b9150509250925092565b61273a81612636565b82525050565b612749816125b3565b82525050565b6040820160008201516127656000850182612731565b5060208201516127786020850182612740565b50505050565b6000604082019050612793600083018461274f565b92915050565b600080fd5b600080fd5b600080fd5b60008083601f8401126127be576127bd612799565b5b8235905067ffffffffffffffff8111156127db576127da61279e565b5b6020830191508360208202830111156127f7576127f66127a3565b5b9250929050565b60008083601f84011261281457612813612799565b5b8235905067ffffffffffffffff8111156128315761283061279e565b5b60208301915083602082028301111561284d5761284c6127a3565b5b9250929050565b6000806000806040858703121561286e5761286d61243c565b5b600085013567ffffffffffffffff81111561288c5761288b612441565b5b612898878288016127a8565b9450945050602085013567ffffffffffffffff8111156128bb576128ba612441565b5b6128c7878288016127fe565b925092505092959194509250565b6000602082840312156128eb576128ea61243c565b5b60006128f984828501612689565b91505092915050565b600061290d82612636565b9050919050565b61291d81612902565b811461292857600080fd5b50565b60008135905061293a81612914565b92915050565b600080604083850312156129575761295661243c565b5b60006129658582860161292b565b925050602061297685828601612689565b9150509250929050565b600080fd5b7f4e487b7100000000000000000000000000000000000000000000000000000000600052604160045260246000fd5b6129bd82612547565b810181811067ffffffffffffffff821117156129dc576129db612985565b5b80604052505050565b60006129ef612432565b90506129fb82826129b4565b919050565b600067ffffffffffffffff821115612a1b57612a1a612985565b5b612a2482612547565b9050602081019050919050565b82818337600083830152505050565b6000612a53612a4e84612a00565b6129e5565b905082815260208101848484011115612a6f57612a6e612980565b5b612a7a848285612a31565b509392505050565b600082601f830112612a9757612a96612799565b5b8135612aa7848260208601612a40565b91505092915050565b600060208284031215612ac657612ac561243c565b5b600082013567ffffffffffffffff811115612ae457612ae3612441565b5b612af084828501612a82565b91505092915050565b612b02816125b3565b82525050565b6000602082019050612b1d6000830184612af9565b92915050565b612b2c816124cb565b8114612b3757600080fd5b50565b600081359050612b4981612b23565b92915050565b60008060408385031215612b6657612b6561243c565b5b6000612b7485828601612689565b9250506020612b8585828601612b3a565b9150509250929050565b600067ffffffffffffffff821115612baa57612ba9612985565b5b612bb382612547565b9050602081019050919050565b6000612bd3612bce84612b8f565b6129e5565b905082815260208101848484011115612bef57612bee612980565b5b612bfa848285612a31565b509392505050565b600082601f830112612c1757612c16612799565b5b8135612c27848260208601612bc0565b91505092915050565b60008060008060808587031215612c4a57612c4961243c565b5b6000612c5887828801612689565b9450506020612c6987828801612689565b9350506040612c7a878288016125d4565b925050606085013567ffffffffffffffff811115612c9b57612c9a612441565b5b612ca787828801612c02565b91505092959194509250565b6000819050919050565b6000612cd8612cd3612cce84612616565b612cb3565b612616565b9050919050565b6000612cea82612cbd565b9050919050565b6000612cfc82612cdf565b9050919050565b612d0c81612cf1565b82525050565b6000602082019050612d276000830184612d03565b92915050565b60008060408385031215612d4457612d4361243c565b5b6000612d5285828601612689565b9250506020612d6385828601612689565b9150509250929050565b7f4e487b7100000000000000000000000000000000000000000000000000000000600052602260045260246000fd5b60006002820490506001821680612db457607f821691505b602082108103612dc757612dc6612d6d565b5b50919050565b7f4552433732313a20617070726f76616c20746f2063757272656e74206f776e6560008201527f7200000000000000000000000000000000000000000000000000000000000000602082015250565b6000612e2960218361250c565b9150612e3482612dcd565b604082019050919050565b60006020820190508181036000830152612e5881612e1c565b9050919050565b7f4552433732313a20617070726f76652063616c6c6572206973206e6f7420746f60008201527f6b656e206f776e6572206f7220617070726f76656420666f7220616c6c000000602082015250565b6000612ebb603d8361250c565b9150612ec682612e5f565b604082019050919050565b60006020820190508181036000830152612eea81612eae565b9050919050565b7f4552433732313a2063616c6c6572206973206e6f7420746f6b656e206f776e6560008201527f72206f7220617070726f76656400000000000000000000000000000000000000602082015250565b6000612f4d602d8361250c565b9150612f5882612ef1565b604082019050919050565b60006020820190508181036000830152612f7c81612f40565b9050919050565b7f4e487b7100000000000000000000000000000000000000000000000000000000600052603260045260246000fd5b600060208284031215612fc857612fc761243c565b5b6000612fd684828501612b3a565b91505092915050565b7f4e487b7100000000000000000000000000000000000000000000000000000000600052601160045260246000fd5b6000613019826125b3565b91507fffffffffffffffffffffffffffffffffffffffffffffffffffffffffffffffff820361304b5761304a612fdf565b5b600182019050919050565b7f496e697469616c697a61626c653a20636f6e747261637420697320616c72656160008201527f647920696e697469616c697a6564000000000000000000000000000000000000602082015250565b60006130b2602e8361250c565b91506130bd82613056565b604082019050919050565b600060208201905081810360008301526130e1816130a5565b9050919050565b6000819050919050565b600060ff82169050919050565b600061311a613115613110846130e8565b612cb3565b6130f2565b9050919050565b61312a816130ff565b82525050565b60006020820190506131456000830184613121565b92915050565b60008190508160005260206000209050919050565b60006020601f8301049050919050565b600082821b905092915050565b6000600883026131ad7fffffffffffffffffffffffffffffffffffffffffffffffffffffffffffffffff82613170565b6131b78683613170565b95508019841693508086168417925050509392505050565b60006131ea6131e56131e0846125b3565b612cb3565b6125b3565b9050919050565b6000819050919050565b613204836131cf565b613218613210826131f1565b84845461317d565b825550505050565b600090565b61322d613220565b6132388184846131fb565b505050565b5b8181101561325c57613251600082613225565b60018101905061323e565b5050565b601f8211156132a1576132728161314b565b61327b84613160565b8101602085101561328a578190505b61329e61329685613160565b83018261323d565b50505b505050565b600082821c905092915050565b60006132c4600019846008026132a6565b1980831691505092915050565b60006132dd83836132b3565b9150826002028217905092915050565b6132f682612501565b67ffffffffffffffff81111561330f5761330e612985565b5b6133198254612d9c565b613324828285613260565b600060209050601f8311600181146133575760008415613345578287015190505b61334f85826132d1565b8655506133b7565b601f1984166133658661314b565b60005b8281101561338d57848901518255600182019150602085019450602081019050613368565b868310156133aa57848901516133a6601f8916826132b3565b8355505b6001600288020188555050505b505050505050565b7f4552433732313a20696e76616c696420746f6b656e2049440000000000000000600082015250565b60006133f560188361250c565b9150613400826133bf565b602082019050919050565b60006020820190508181036000830152613424816133e8565b9050919050565b7f4552433732313a2061646472657373207a65726f206973206e6f74206120766160008201527f6c6964206f776e65720000000000000000000000000000000000000000000000602082015250565b600061348760298361250c565b91506134928261342b565b604082019050919050565b600060208201905081810360008301526134b68161347a565b9050919050565b6000819050919050565b60006134e26134dd6134d8846134bd565b612cb3565b6125b3565b9050919050565b6134f2816134c7565b82525050565b600082825260208201905092915050565b50565b60006135196000836134f8565b915061352482613509565b600082019050919050565b600060c0820190506135446000830188612648565b6135516020830187612af9565b61355e6040830186612648565b61356b6060830185612af9565b61357860808301846134e9565b81810360a08301526135898161350c565b90509695505050505050565b6000815190506135a481612672565b92915050565b6000602082840312156135c0576135bf61243c565b5b60006135ce84828501613595565b91505092915050565b60006135e2826125b3565b91506135ed836125b3565b925082820190508082111561360557613604612fdf565b5b92915050565b600081905092915050565b600061362182612501565b61362b818561360b565b935061363b81856020860161251d565b80840191505092915050565b60006136538285613616565b915061365f8284613616565b91508190509392505050565b7f4f776e61626c653a206e6577206f776e657220697320746865207a65726f206160008201527f6464726573730000000000000000000000000000000000000000000000000000602082015250565b60006136c760268361250c565b91506136d28261366b565b604082019050919050565b600060208201905081810360008301526136f6816136ba565b9050919050565b7f4552433732313a207472616e736665722066726f6d20696e636f72726563742060008201527f6f776e6572000000000000000000000000000000000000000000000000000000602082015250565b600061375960258361250c565b9150613764826136fd565b604082019050919050565b600060208201905081810360008301526137888161374c565b9050919050565b7f4552433732313a207472616e7366657220746f20746865207a65726f2061646460008201527f7265737300000000000000000000000000000000000000000000000000000000602082015250565b60006137eb60248361250c565b91506137f68261378f565b604082019050919050565b6000602082019050818103600083015261381a816137de565b9050919050565b7f4f776e61626c653a2063616c6c6572206973206e6f7420746865206f776e6572600082015250565b600061385760208361250c565b915061386282613821565b602082019050919050565b600060208201905081810360008301526138868161384a565b9050919050565b7f496e697469616c697a61626c653a20636f6e7472616374206973206e6f74206960008201527f6e697469616c697a696e67000000000000000000000000000000000000000000602082015250565b60006138e9602b8361250c565b91506138f48261388d565b604082019050919050565b60006020820190508181036000830152613918816138dc565b9050919050565b7f4552433732313a206d696e7420746f20746865207a65726f2061646472657373600082015250565b600061395560208361250c565b91506139608261391f565b602082019050919050565b6000602082019050818103600083015261398481613948565b9050919050565b7f4552433732313a20746f6b656e20616c7265616479206d696e74656400000000600082015250565b60006139c1601c8361250c565b91506139cc8261398b565b602082019050919050565b600060208201905081810360008301526139f0816139b4565b9050919050565b7f4552433732313a20617070726f766520746f2063616c6c657200000000000000600082015250565b6000613a2d60198361250c565b9150613a38826139f7565b602082019050919050565b60006020820190508181036000830152613a5c81613a20565b9050919050565b7f4552433732313a207472616e7366657220746f206e6f6e20455243373231526560008201527f63656976657220696d706c656d656e7465720000000000000000000000000000602082015250565b6000613abf60328361250c565b9150613aca82613a63565b604082019050919050565b60006020820190508181036000830152613aee81613ab2565b9050919050565b7f4e487b7100000000000000000000000000000000000000000000000000000000600052601260045260246000fd5b600081519050919050565b6000613b3a82613b24565b613b4481856134f8565b9350613b5481856020860161251d565b613b5d81612547565b840191505092915050565b6000608082019050613b7d6000830187612648565b613b8a6020830186612648565b613b976040830185612af9565b8181036060830152613ba98184613b2f565b905095945050505050565b600081519050613bc381612472565b92915050565b600060208284031215613bdf57613bde61243c565b5b6000613bed84828501613bb4565b9150509291505056fea26469706673582212201c80eec2c5e7a83726d53e3eecf207c65c0d53ae396a4a9bcb4ac51bee44ea5e64736f6c63430008130033",
  "linkReferences": {},
  "deployedLinkReferences": {}
}